:020000040800F2
:1000000000040020D10300089104000891040008B6
:10001000910400089104000891040008910400086C
:10002000910400089104000891040008C10400082C
:10003000910400089104000891040008A10500083B
:10004000910400089104000891040008910400083C
:10005000910400089104000891040008910400082C
:10006000910400089104000891040008E10E0008C2
:10007000110F0008410F0008710F0008A10F0008C0
:10008000D10F000801100008910400089104000835
:1000900091040008910400089104000891040008EC
:1000A00091040008910400089104000891040008DC
:1000B00091040008910400089104000891040008CC
:1000C00091040008910400089104000891040008BC
:1000D00091040008910400089104000891040008AC
:1000E000910400089104000891040008910400089C
:1000F00091040008910400089104000831100008E0
:1001000091040008511400089104000891040008AB
:10011000910400089104000891040008910400086B
:100120006110000891100008C1100008F1100008CB
:1001300021110008910400089104000891040008AE
:10014000910400089104000891040008910400083B
:100150005111000881110008B11100089104000834
:10016000910400089104000891040008910400081B
:10017000910400089104000891040008910400080B
:0801800091040008910400083D
:1001900070B5ADF50A7D00F09BFC00F071FA01200E
:1001A00000F01EFC754BA3F58064012202204FF481
:1001B00000411A83188321834FF4FA64012000F070
:1001C0000FFC6F4B1A69D20700F1D28018698307C0
:1001D00000F1CE80013CF1D11426684C656985F0B0
:1001E000010161616369664D83F0020262616869C1
:1001F00080F400416961322000F0F2FB013EECD155
:100200004FF4FA7000F0ECFB01260223668363834F
:100210004FF400444FF4FA706C8300F0E1FB59484E
:10022000594900F035FE574801F042FC10B93046FC
:1002300002F0E6FF534800F093FC10B1012002F0F9
:10024000DFFF962000F0CCFB0020504902F030FD8B
:1002500028B14C4800F0D4FD022002F0D1FF0A265C
:10026000464D0124962000F0BBFB2C8301A8484991
:10027000224602F02DFD6C83054630B1721E12F04D
:10028000FF06EDD1032002F0BBFF424801F098FECB
:10029000002401A9404801F04BFC4049C0B208705D
:1002A000002839D1962694FBF6F206FB1240013461
:1002B00020B932494B6983F001064E61364BD3F8C1
:1002C0000821042AE5D801A151F822F0E102000832
:1002D000930200081103000811030008030300083B
:1002E0002F4A198810882F4E2F4AD3F8043101EB7A
:1002F00000412848316001F083FE0028C9D0052064
:1003000007E09878D978264B01EB00261E80C0E7DD
:10031000042002F075FFBCE7184B01245C8301A8A0
:1003200002F096FE0020014602F0C2FC154800F0E3
:1003300017FC15B1052002F063FF184D2A78561DF1
:10034000F0B2042809D8012471B204FA01F313F0C1
:10035000170F02D0042002F053FF084C012602259B
:1003600026834FF47A70258300F03AFB6683658319
:1003700002F01EFF00200DF50A7D70BD0004024052
:1003800000000240BC0D0020D03A000850110020AF
:10039000C03A00088D130020401000208C1300206C
:1003A0008413002088130020421000200000000069
:1003B0007047000000000000000000000000000086
:1003C000FEE7000000000000000000000000000048
:1003D00072B6224B83F30988022080F31488BFF39E
:1003E0006F8F1F491F4A914204D24FF0553241F896
:1003F000042BF7E71C4C19498C4204D24FF05530BE
:1004000044F8040BF7E701F04BFB0023174C184AA4
:100410001819904204D2174A995819510433F5E734
:10042000154B16498B4203D2002043F8040BF8E722
:10043000FFF7BEFF124C134B9C4203D254F8041B2F
:100440008847F8E7FFF7A4FE0F4C1048844203D218
:1004500054F8042B9047F8E7FFF7B2FF000800209C
:1004600000000020000400200004002000080020FC
:10047000340C0020F83B0008380C0020A8130020A2
:100480008801000888010008880100088801000828
:10049000FEE7000000000000000000000000000077
:1004A00072B6FEE70000000000000000000000003F
:1004B00000F056FA00DF000000000000000000001D
:1004C00000B5EFF30983203383F3098800F030F897
:1004D0005DF804FB000000000000000000000000C8
:1004E00008B50A480A4B00229A601021D8600720FC
:1004F00000F0A6F80A204FF4007100F0A1F80B20DC
:100500008021BDE8084000F09BB800BF0003FA0559
:1005100000ED00E00000000000000000000000000E
:10052000202383F3118870470000000000000000C2
:10053000002383F3118870470000000000000000D2
:1005400000B5FFF7EDFF0F4B5868030516D5EFF325
:100550000983A3F1200282F309880B484FF08071D0
:10056000026943F8041C01688868916888428CBF5E
:100570000649074943F8081C5DF804FBFFF7D8FF5C
:100580005DF804FB00ED00E0FC0C0020B104000865
:10059000B40400080000000000000000000000009B
:1005A00008B5FFF7BDFF00F093F8FFF7C1FFBDE806
:1005B0000840FFF7C5BF0000000000000000000079
:1005C0002DE9F04FC1F80CD0D0F80CD0BDE8F08F79
:1005D00000B5FFF7ADFF2846A04700F021FA5DF80F
:1005E00004FB00000000000000000000000000000C
:1005F00082080F4BC03270B500F0030453F822603C
:10060000E400FF2505FA04F501FA04F126EA0505E0
:100610000D4343F822500121420900F01F0001FA66
:1006200000F002F1600143F8210043F8220070BDA0
:1006300000E100E0000000000000000000000000F9
:100640008208094B063200F0030030B5C00053F8B1
:100650002250FF2404FA00F425EA040401FA00F110
:100660000C4343F8224030BD00ED00E000000000E4
:10067000FEE7000000000000000000000000000095
:1006800007B5FFF72DFF00F0ABF800F061F800F0C0
:10069000D7F900F00DFA4021084800F069F9084B3D
:1006A000012218610274002383F3118862B690213D
:1006B00000930448044B00F07BF90EBD380C002079
:1006C000FC0C0020580C00207106000800000000FF
:1006D0000D4BDA681968501C994210B5D86012D0D9
:1006E0008B685A1E8A6008480268916859B9136875
:1006F000D4685860D1600360FFF71AFF1069A04703
:10070000FFF70EFFEFE710BDEC0C0020000000002B
:1007100008B5044B186002F0A3FDBDE80840FFF7E0
:10072000BFBE00BFE80C0020000000000000000079
:100730000346006802681A605360704700000000BA
:1007400090E80600116001684A60704700000000F0
:10075000044B4FF0FF3200205B601B609A60D86052
:10076000704700BFEC0C00200000000000000000FB
:1007700003610A4BC2601B689A688A4201D2891AD7
:10078000F9E75A680360426010605860816003486E
:10079000834202D09A68511A99607047EC0C00208D
:1007A000C36810B5044613B90848FFF7B1FF2068C5
:1007B000074A904203D08168A368CA1882606168C2
:1007C0000860206800234160E36010BDA036000887
:1007D000EC0C002000000000000000000000000001
:1007E000024B00225B601B609A607047FC0C00208B
:1007F00010B5037C04460BB10E2B02D10848FFF75D
:1008000087FF0020A168074B20741B689A688A4202
:10081000FBD258682360606004605C60204610BDB5
:10082000C0360008FC0C00200000000000000000A2
:1008300010B50446FFF774FE037C032B03D00D2B89
:1008400005D03BB90CE040698268511C81602046AC
:10085000FFF776FF4FF0FF3363612046FFF7C8FFD5
:10086000FFF766FE10BD0000000000000000000061
:1008700038B5074C256928742046FFF759FF012237
:10088000294620610274BDE83840FFF799BE00BFD9
:10089000FC0C002000000000000000000000000030
:1008A00010B54B1C86B004460ED00B4B0B4A1B698F
:1008B00001A8FFF75DFF2046FFF7DAFF049828B193
:1008C00001A8FFF76DFF01E0FFF7D2FF02490A69B7
:1008D000506906B010BD00BFFC0C002031080008B4
:1008E00038B50C4D41612B6981689A689142044684
:1008F00003D8BDE83840FFF77BBF1846FFF778FF05
:10090000014601202C6120742046BDE83840FFF7E5
:1009100057BE00BFFC0C00200000000000000000DB
:1009200038B50D4D28462C69FFF702FF0123002141
:10093000286103742174A1682B461B689A688A4257
:10094000FBD85968236061600C6021465C60BDE89B
:100950003840FFF735BE00BFFC0C0020000000004F
:10096000FFF7DEBF000000000000000000000000F4
:10097000816002220021027441748161704700008D
:10098000243930B54518C5604350039B05496B6059
:100990002962002382600222044602744374836148
:1009A00030BD00BFD10500080000000000000000BD
:1009B00037B51D46FFF7B4FD069C2B460094FFF7A4
:1009C000DFFF00210446FFF78BFFFFF7B1FD204654
:1009D0003EBD00000000000000000000000000001C
:1009E00008B50146FFF79CFD0620FFF759FFFFF70A
:1009F0009FFD08BD00000000000000000000000096
:100A000008B5054B196948610E20FFF731FF03480F
:100A1000BDE80840FFF77CBEFC0C0020F236000861
:100A200000B5FFF77DFD5DF804EBFFF7E9BF0000BF
:100A3000406000608160704700000000000000001E
:100A4000054A064B064922F007001860054821F0C8
:100A500007020260704700BFAF130020140D002092
:100A600000C00120100D0020000000000000000068
:100A7000074B0849073020F0070209681868091A6F
:100A8000914202D382181A6070470020704700BF5D
:100A9000140D0020100D00200000000000000000D8
:100AA00008B5FFF73DFDFFF7E3FFFFF741FD08BD88
:100AB0000448054B00218160C160036001211030B2
:100AC000FFF7B6BF180D0020A10A000800000000C3
:100AD00008B500F0EDFB054800F06AFF00F0C0F932
:100AE00000F0EEF9BDE8084000F0FABFE038000879
:100AF000C368990F0AD001291AD18268C08802F010
:100B00003F0340EA03414A1C9002704742688368F1
:100B1000910F980541EA1050C2F3C2320130911C86
:100B2000C3F3034300FA01F0093B00FA03F07047F6
:100B300000207047000000000000000000000000DE
:100B40000379052B06D1806A4FF4007248600A6071
:100B500000207047012070470000000000000000E6
:100B60000379022B73B5044604D0052B02D06048EC
:100B7000FFF7CEFD03202071204600F0D1FC0021BC
:100B80000A46204600F004FD4FF4D57220460821A5
:100B900001AB00F02DFD0246B0B90198C0F303216E
:100BA00001230129236340F09B802046372101ABBC
:100BB00000F01EFD002840F093804E4B019A134038
:100BC000002B40F08D8001E000212163266B4A4814
:100BD0004A4906F00F05012D14BF0E46064664254E
:100BE00020463721002201AB00F002FD002877D11A
:100BF000404B019A1340002B72D1204629213246E6
:100C000001AB00F0D5FC00286AD10198002806DA73
:100C100043000AD5216B41F01003236305E0013D39
:100C20005ED00A20FFF7DCFEDAE700222046022130
:100C300004F1080300F084FD0246002850D120464C
:100C4000032104F1380300F0D3FC002848D104F15B
:100C5000180520460921A26B2B4600F071FD0028E3
:100C60003ED1204600F06CFC20460721A26B01AB70
:100C700000F0BEFC002833D1204610214FF4007252
:100C800001AB00F0B5FC58BB1A4A019802403ABBD0
:100C9000216B01F00F03012B19D82046012100F030
:100CA0005FFC20463721A26B01AB00F0A1FCB8B974
:100CB000104A019802409AB920460621022201AB4F
:100CC00000F096FC60B90B49019B194041B92846D8
:100CD000FFF70EFFA06218B105222271002005E087
:100CE000204600F035FC0220207101207CBD00BFB1
:100CF0003037000808E0FFFD000010C00000108041
:100D000038B50579052D044605D10823037100F097
:100D100037FE257138BD012038BD000000000000FD
:100D2000F8B51D460379052B04460E46174602D03A
:100D30000C48FFF7EDFC721EA16A5019884205D9D4
:100D4000606B40F0800161630120F8BD07232371CF
:100D50003A46204631462B4600F0E2FD052222713C
:100D6000F8BD00BF4137000800000000000000008F
:100D7000F8B51D460379052B04460E46174602D0EA
:100D80000C48FFF7C5FC721EA16A5019884205D9AC
:100D9000606B40F0800161630120F8BD0623237180
:100DA0003A46204631462B4600F08AFD0522227144
:100DB000F8BD00BF50370008000000000000000030
:100DC00013B5044620460D21A26B01AB00F010FCC8
:100DD00080B9019A084B134063B9C2F34320042839
:100DE00006D007D3072805D80120FFF7F9FDE9E76A
:100DF000184600E001201CBD08E0FFFD00000000D7
:100E000070B50446FFF78CFB0379022B04D0052B49
:100E100002D00F48FFF77CFC2079022803D1FFF7AE
:100E200087FB002070BD04212171FFF781FB204664
:100E3000FFF7C6FF06460225204626B100F088FBD4
:100E40002571012070BD00F083FB2571E9E700BF2B
:100E50005E370008000000000000000000000000F5
:100E600000F00EBB000000000000000000000000C9
:100E7000044B00220121036001714263C26282625D
:100E8000704700BF1037000800000000000000009D
:100E900038B504460D46FFF743FB0379581E012879
:100EA00002D90648FFF734FCE562204600F000FB5B
:100EB00002212171FFF73CFB38BD00BF72370008EB
:100EC00000F0CEBD000000000000000000000000A7
:100ED000002301210170436083600C30FFF7A8BD3F
:100EE00008B50748074B3D2219689A60036801F06E
:100EF0003D010BB140689847BDE80840FFF720BBB3
:100F0000380D0020006002400000000000000000DA
:100F100008B5084B1968880900F03D0106484FF4F0
:100F200074629A6083680BB1C0689847BDE8084056
:100F3000FFF706BB00600240380D002000000000F3
:100F400008B5084B1968080C00F03D0106484FF43D
:100F500074129A6003690BB140699847BDE8084074
:100F6000FFF7EEBA00600240380D002000000000DC
:100F700008B5084B1968880D00F03D0106484FF090
:100F800074629A6083690BB1C0699847BDE80840F4
:100F9000FFF7D6BA00600240380D002000000000C4
:100FA00008B50748074B3D225968DA60036A01F02B
:100FB0003D010BB1406A9847BDE80840FFF7C0BA51
:100FC000380D00200060024000000000000000001A
:100FD00008B5084B5968880900F03D0106484FF4F0
:100FE0007462DA60836A0BB1C06A9847BDE8084052
:100FF000FFF7A6BA00600240380D00200000000094
:1010000008B5084B5968080C00F03D0106484FF43C
:101010007412DA60036B0BB1406B9847BDE808406F
:10102000FFF78EBA00600240380D0020000000007B
:1010300008B5084B5968880D00F03D0106484FF08F
:101040007462DA60836B0BB1C06B9847BDE80840EF
:10105000FFF776BA00600240380D00200000000063
:1010600008B50748074B3D2219689A60036C01F0E8
:101070003D010BB1406C9847BDE80840FFF760BAEE
:10108000380D002000640240000000000000000055
:1010900008B5084B1968880900F03D0106484FF46F
:1010A00074629A60836C0BB1C06C9847BDE80840CD
:1010B000FFF746BA00640240380D0020000000002F
:1010C00008B5084B1968080C00F03D0106484FF4BC
:1010D00074129A60036D0BB1406D9847BDE80840EB
:1010E000FFF72EBA00640240380D00200000000017
:1010F00008B5084B1968880D00F03D0106484FF00F
:1011000074629A60836D0BB1C06D9847BDE808406A
:10111000FFF716BA00640240380D002000000000FE
:1011200008B50748074B3D225968DA60036E01F0A5
:101130003D010BB1406E9847BDE80840FFF700BA8B
:10114000380D002000640240000000000000000094
:1011500008B5084B5968880900F03D0106484FF46E
:101160007462DA60836E0BB1C06E9847BDE80840C8
:10117000FFF7E6B900640240380D002000000000CF
:1011800008B5084B5968080C00F03D0106484FF4BB
:101190007412DA60036F0BB1406F9847BDE80840E6
:1011A000FFF7CEB900640240380D002000000000B7
:1011B00008B5084B5968880D00F03D0106484FF00E
:1011C0007462DA60836F0BB1C06F9847BDE8084066
:1011D000FFF7B6B900640240380D0020000000009F
:1011E0000B4B00221A6013460A495858002101602F
:1011F00009480C3311500832C02BF5D1074A4FF083
:10120000FF339360D360C2F80834C2F80C347047DF
:10121000B80D0020C0370008380D002000600240E3
:10122000F8B51F4E447A3768012505FA04FC1CEA1C
:10123000070F31D11B4D45F8342005EBC404636022
:101240004CEA070313F0FF0F336004D0164E376BE0
:1012500047F40015356313F47F4F04D0124B1C6B19
:1012600044F480061E6303681F6827F01F051D6095
:101270001C6814F00104FBD1067A45683D2707FA83
:1012800006F62E6021251C605D613AB1807A090165
:10129000FFF7AEF92046F8BD2846F8BD1046F8BD68
:1012A000B80D0020380D002000380240000000007A
:1012B000254B4FF0FF311A69196100221A615869F4
:1012C00059615A61186A60F0805018621A62586A4F
:1012D00059621E481E495A62486007208A600860A9
:1012E000D1F8EC0D40F08070C1F8EC0D1949086898
:1012F00040F001000860196C41F0805016491864F4
:10130000086840F480700860196F01F44070B0F50F
:10131000807F03D04FF4803119671A671A6F42F04B
:1013200001001867196F084A8907FBD5136B0A4932
:1013300043F4802010634A6842F400734B604868AD
:101340000207FCD5FFF74CBF003802403F90020077
:1013500010E000E0001000E000700040000000001D
:10136000244B25484FF080524FF480411A640160AD
:1013700042685104FCD5186840F0010119601D4B0A
:101380001A689007FBD5186840F480311960186816
:10139000184A8103FBD5536F43F001015167154A89
:1013A000506F8307FBD5154B5360116841F0807077
:1013B000106011680F4B8801FBD59868104A40EA0D
:1013C0000201104A996040F205701060996841F07E
:1013D00002009860074B9A6802F00C010829F9D1C5
:1013E000586C40F480425A64596E41F4804058660B
:1013F000704700BF00380240007000401A54400798
:1014000000940838003C024000000000000000008A
:1014100001F001038A0748BF43F002034A0748BFAF
:1014200043F008030A0748BF43F00403CA0648BF55
:1014300043F010038A0648BF43F020038A05426B3D
:1014400048BF43F0400342EA030141637047000094
:1014500038B5FFF765F8074C074BE06B0025DD63F7
:1014600010B1FFF7C5F9E563FFF762F8BDE8384052
:10147000FFF766B8BC0D0020002C01400000000002
:1014800010B5054C2046FFF7F3FC0448044960649E
:101490000023E363A16410BDBC0D002044380008A4
:1014A000002C0140000000000000000000000000CF
:1014B000134B10B5044603640079012818D10022AB
:1014C000606C09211346FFF7ABFE10B10D48FFF722
:1014D0001FF9616C0C4A0B6807209A6090215861D3
:1014E0003120FFF785F809494B6C43F400624A64E8
:1014F0000748002101604160C162416210BD00BF28
:101500002054A30880380008802C01400038024095
:10151000002C01400000000000000000000000005E
:10152000054B78225A60186840F0030119605A6828
:1015300042F4807058607047002C014000000000A9
:10154000024B5A6822F0FF0058607047002C01409F
:10155000024B00225A601A60704700BF002C014005
:10156000074B5A68012922F4C05005D006D302293E
:1015700005D140F4805001E040F4006058607047AD
:10158000002C0140000000000000000000000000EE
:10159000054B41F480619A60D9605A6B1106FCD505
:1015A000014B802098637047002C01400000000030
:1015B00010B50B4C41F48861A260E160616B084A90
:1015C00011F0450FFAD011F00404916303D0FFF736
:1015D0001FFF012010BD50691860204610BD00BFDC
:1015E000002C01400000000000000000000000008E
:1015F00010B50B4C41F48861A260E160616B084A50
:1016000011F0450FFAD011F00504916303D0FFF7F4
:10161000FFFE012010BD50691860204610BD00BFBC
:10162000002C01400000000000000000000000004D
:101630002DE9F04104460F461646FEF771FF1D4B9B
:10164000D86B78B1E16B11B11B48FFF761F81B4A09
:1016500013690220E363FFF70BF9E06B10B1184840
:10166000FFF756F813494A6BD00504D4FEF760FF24
:101670000120BDE8F081606C03681D6815F001026F
:10168000FBD1017A43683D2000FA01F11960094855
:101690000C4B8363C262FEF74BFF012F06D9204635
:1016A0000C213346BDE8F041FFF7A2BF1046BDE86C
:1016B000F08100BF002C014094380008FC0C002091
:1016C000B9380008FF07C00000000000000000005B
:1016D0002DE9F047446C174B67680546207A904621
:1016E0003D2202FA00F620688946596B3E60036885
:1016F00023F01F020260066816F00106FBD1207A73
:101700003D2303FA00F20B480B4B3A608363C66338
:10171000C6622846FFF77CFEB9F1010F07D92846BB
:101720000C2132464346BDE8F047FFF761BFBDE8F4
:10173000F08700BF002C0140FF07C0000000000040
:1017400010B50E4C41F49861A260E160616B0B4AE8
:1017500011F0450FFAD011F03F04916303D0FFF769
:1017600057FE012010BD106A1860D1695960906958
:10177000986052692046DA6010BD00BF002C01401D
:101780002DE9F3411D46214F214B7B6204460E4655
:101790009046FFF715FB50BB606C6B020168206C34
:1017A000C1F80C809A084A6008600A6842F001009B
:1017B0000860184940F22A32B963FA63BB62236BAE
:1017C000DB0658BF7602012D204601D9122100E028
:1017D0001121324601ABFFF70BFF18B90E480199F2
:1017E000084030B12046294601AAFFF771FF0120C9
:1017F00009E0064B9B22DA622046294601AAFFF740
:1018000017FF0028EED1BDE8FC8100BF002C01408D
:10181000C0D40100FF07C00008E0FFFD0000000089
:101820002DE9F3411D46224F224B7B6204460E46B2
:101830009046FFF7C5FA00282CD1606C6B02016856
:10184000206CC1F80C809A084A6040F040020A609F
:10185000086840F001020A60174940F21A30B96383
:10186000F863BB62236BDA0658BF7602012D20466F
:1018700001D9192100E01821324601ABFFF7B8FE6B
:1018800018B90E49019A114031B12046294601AAE2
:10189000FFF71EFF012009E0054B9920D862294679
:1018A000204601AAFFF7C4FE0028EED1BDE8FC8166
:1018B000002C0140808D5B00FF07C00008E0FFFDA9
:1018C00012F0030F2DE9F04107460C4615461E465F
:1018D00017D05E18A2EB4125B4420FD038462146FE
:1018E0000B4A0123FFF74CFF78B905EB4420084968
:1018F0004FF4007201F0C4FC0134EDE70020BDE8B4
:10190000F081BDE8F041FFF73BBF0120BDE8F08169
:10191000080E002000000000000000000000000091
:1019200012F0030F2DE9F04106460C4615461F46FE
:1019300017D05F18A2EB4125BC420FD005EB442124
:101940004FF400720A4801F09BFC30462146084AD9
:101950000123FFF765FF40B90134EDE70020BDE842
:10196000F081BDE8F041FFF75BBF0120BDE8F081E9
:10197000080E002000000000000000000000000031
:101980000020704700000000000000000000000080
:101990004B688A684360CB6882600A69C3604261B1
:1019A0004B698A69096803624262016070470000FE
:1019B0001E4B1A6B10B504466FEA52206FEA4021A5
:1019C00019631A6D6FEA52206FEA402119651848B1
:1019D0002146FFF7DDFF04F11C011648FFF7D8FF91
:1019E00004F138011448FFF7D3FF04F15401134800
:1019F000FFF7CEFF04F170011148FFF7C9FF04F1B2
:101A00008C011048FFF7C4FF04F1A8010E48FFF74E
:101A1000BFFF04F1C4010D48FFF7BAFF0C4804F101
:101A2000E001BDE81040FFF7B3BF00BF003802403F
:101A3000000002400004024000080240000C024086
:101A4000001002400014024000180240001C024036
:101A50000020024000000000000000000000000024
:101A600010B5094C094B4FF6FF7220461A80FFF75C
:101A70002FFA0749074A0848E16162623C31303277
:101A8000A0612162A26210BD0C100020081000208D
:101A90002038000816000106003001400000000058
:101AA000FFF75EBC00000000000000000000000026
:101AB000034B1869C0F3001181F00100704700BFAB
:101AC000000C0240000000000000000000000000C8
:101AD000024B1869C0F34010704700BF000C024071
:101AE000704700000000000000000000000000003F
:101AF000D0F80831D0F8041110B553FA81F20388F8
:101B000053FA82F202EB132303F0FF0200238B420D
:101B100005DAC4180133A4781219D2B2F7E750429B
:101B2000C0B210BD00000000000000000000000076
:101B30002DE9F0410D46ADF5427D0446002800F048
:101B40009880002900F0958002A84FF440712A4641
:101B500001F086FA20B102A801F03AFC00230FE060
:101B6000A868EB68984214BF4FF0FF306FF0010097
:101B700084E002A95A5C0D2A05D00A2A03D0013359
:101B80008342F6DB01E00020C8549DF80850002D88
:101B900072D002A801F01CFC082802D86FF00200E5
:101BA0006CE03A2DFAD1002502220DF109016846B8
:101BB00001F03EFC1022294668468DF8025001F0E3
:101BC0005FFD042206460DF10B01684601F030FC72
:101BD0001022294668468DF8045001F051FD02227A
:101BE00020800DF10F01684601F022FC29461022E9
:101BF00068468DF8025001F043FDC4F8080102A8C0
:101C000001F0E6FB4FEA460808F10B018842C5D314
:101C10000DF11107B54210DA39460222684601F08B
:101C200007FC0021102268468DF8021001F028FD03
:101C30006219023790700135ECE7C4F8046108F1CD
:101C4000090502AE711902220025684601F0F0FB79
:101C50001022294668468DF8025001F011FDC6B2E7
:101C600084F80C612046FFF743FF864296D1284650
:101C700004E06FF0030001E06FF004000DF5427D19
:101C8000BDE8F0810000000000000000000000003E
:101C9000044B1A69002A04DA034800F188315860BD
:101CA00059607047003C0240230167450000000076
:101CB000024B1A6942F0004018617047003C024034
:101CC00030F0F30310B5044603D1003018BF0120F3
:101CD00000E0002001F0CCFA014BDC6010BD00BF39
:101CE000003C024000000000000000000000000076
:101CF0000B4BDA68D1030DD4D868C2060CD4D9686E
:101D000011F0EF0F0AD1DB6813F0020F0CBF0820AF
:101D10000720704701207047052070470620704754
:101D2000003C024000000000000000000000000035
:101D300007B508238DF80730FFF7DAFF8DF80700A5
:101D40009DF807000128F7D09DF807000EBD0000A0
:101D5000164B00F178429A4270B505460E460AD9F4
:101D600000F1604000F5084040F20E2188428CBF2F
:101D70000020012000E0012001F07AFAFFF7D8FFEF
:101D8000082811D10A4C226922F44073236120698A
:101D90002061216941F0010222612E70FFF7C8FF26
:101DA000236923F00101216170BD00BFFEFF0F0018
:101DB000003C0240000000000000000000000000A5
:101DC00070B50C460546D0B1082818D0102816D09A
:101DD000182814D0202812D0282810D030280ED04F
:101DE00038280CD040280AD0482808D0502806D0DF
:101DF000B0F1580CDCF1000050EB0C0000E00120C9
:101E000001F036FA032C8CBF0020012001F030FADB
:101E100044B1012C08D0022C14BF4FF440764FF48B
:101E2000007603E0264601E04FF48076FFF780FF5E
:101E300008281ED10F4C236923F4407121612269C7
:101E400016432661206920F0F8032361216941F0DF
:101E5000020215432561206940F480332361FFF7B6
:101E600067FF216921F002022261236923F0F80152
:101E7000216170BD003C0240000000000000000035
:101E800000F1784243F6FF739A4231D9A2F58041BE
:101E900099422FD9A2F5004199422DD9A2F540428D
:101EA0009A422BD900F1774303F57F01B1F5803FCA
:101EB00026D3194A03F57E01914223D903F57C010B
:101EC000914221D903F57A0191421FD903F5780196
:101ED00091421DD903F5760393421BD900F1774057
:101EE00000F57402B2F5003F2CBF58205020704717
:101EF0000020704708207047102070471820704756
:101F000020207047282070473020704738207047C5
:101F10004020704748207047FFFF0100000000008C
:101F200000F1784243F6FF739A4231D9A2F580411D
:101F300099422FD9A2F5004199422DD9A2F54042EC
:101F40009A422BD900F1774303F57F01B1F5803F29
:101F500026D3194A03F57E01914223D903F57C016A
:101F6000914221D903F57A0191421FD903F57801F5
:101F700091421DD903F5760393421BD900F17740B6
:101F800000F57402B2F5003F2CBF0B200A20704709
:101F900000207047012070470220704703207047DF
:101FA00004207047052070470620704707207047BF
:101FB0000820704709207047FFFF01000000000063
:101FC00010B504460A48FFF7ABFF002304EB4302B9
:101FD0000021834251702CBF0022012204F81320FB
:101FE00001330C2BF2D1F320BDE81040FFF768BE9F
:101FF00000000208000000000000000000000000D7
:102000002DE9F047814608460D4690461F46FFF7EA
:1020100087FF04462846FFF733FF0B2C824635D84E
:1020200009EB440619F81490B9F1000F31D1FFF70C
:102030002FFEF320FFF744FE74787CB9022150464E
:10204000FFF7BEFE082804D1FFF772FE012373706C
:1020500005E0FFF72DFE6FF0020400E04C467078BB
:10206000C8B12E4679198A1B002A0ADDC5EB080380
:102070003046995DFFF76CFE01360828F2D06FF00C
:102080000304FFF755FEFFF713FE04E04FF0FF34A3
:1020900001E06FF001042046BDE8F0870000000079
:1020A00010B50023934203D0CC5CC4540133F9E74C
:1020B00010BD000000000000000000000000000053
:1020C0008218904202D000F8011BFAE77047000026
:1020D00008B580B1036873B11A7862B1D988808875
:1020E000814208D1587800F0FBFF10F0010F0CBFBF
:1020F0000020032008BD092008BD000000000000EA
:10210000CA7E8B7E032843EA022305D1487D097DE0
:1021100041EA002243EA02431846704700000000EB
:10212000F8B50446007908B3256B607804F13407EC
:1021300039462A46012301F003F8B0B9636A2071D9
:102140009D4201D20020F8BDE26998188542F9D27B
:10215000E678012EF6D9E16960786D182A4639468D
:10216000012300F0EDFF013EF3E70120F8BD000080
:1021700070B50446FFF7D4FF0546002D51D12378F2
:10218000032B46D16079002843D004F13406304651
:1021900029464FF400722563FFF792FF5223552121
:1021A000AA2284F8343084F83530236984F8321256
:1021B0006120722184F83322412284F8360084F8A9
:1021C000372084F8181284F8191284F81A22190E8C
:1021D0001A0C84F81B0284F81C32C3F30720E3684E
:1021E00084F81D0284F81E22C3F307201A0C84F819
:1021F0001F12190E84F8203284F8210284F822225A
:1022000084F82312607862693146012300F098FF58
:102210006571002160780A4600F0AAFF003018BFFF
:10222000012070BD00000000000000000000000060
:1022300010B504460A46407804F13401012300F049
:1022400067FF80BB94F8332294F8323243EA0221CC
:10225000174B0AB29A4228D194F86C2094F86D106A
:10226000130494F86A2043EA016194F86B30114337
:1022700041EA03210F4B21F07F429A4216D094F895
:10228000880094F88910020494F8860042EA0161FB
:1022900094F88720014341EA022121F07F40C01ACF
:1022A00018BF012010BD032010BD022010BD00BFCB
:1022B00055AAFFFF46415400000000000000000046
:1022C0002DE9F041154602681378303B092B05D8FB
:1022D00054783A2C02D10232026000E00023002040
:1022E0000860002B40F05A81B54C2468002C00F0A7
:1022F00058810C60217881B1607800F0F1FEC1074F
:102300000BD4002D00F0508100F00401C8B2002869
:1023100014BF0A200020BDE8F0810020207060700A
:1023200000F0C6FEC20700F142812DB100F00403A7
:10233000DAB2002A40F03E8100212046FFF778FF04
:10234000012818D194F8F60110B90D20BDE8F081EC
:1023500094F8FC5194F8FD1194F8FA012B0443EA27
:10236000016294F8FB11024342EA01252046294606
:10237000FFF75EFF00E00025032800F01E81002823
:10238000E3D194F8402094F83F3043EA0220B0F5BE
:10239000007FDAD194F84B6094F84A1051EA062194
:1023A0000DD194F85A3094F85B2094F85810180422
:1023B00040EA026694F859200E4346EA022194F856
:1023C0004460E161731E012BE670BED894F8412091
:1023D000A270002AB9D0501E1042B6D194F846001F
:1023E00094F8453043EA002398B21B072081ACD112
:1023F00094F8487094F8473053EA07230DD194F8C5
:10240000563094F857701B0443EA076394F85470ED
:102410003B4394F8557043EA072394F8438094F8BB
:10242000427057EA082890D006FB01FC08EB101711
:102430006744BB4289D3DB1BB3FBF2F3002B84D090
:1024400040F6F576B34206D94FF6F57293428CBF4B
:102450000326022600E00126023305EB08027F195D
:10246000032EA36125626262E76213D100287FF424
:102470006CAF94F8622094F86300120442EA0062A0
:1024800094F86000024394F8610042EA0022A262DC
:1024900098000FE000283FF458AF0CEB0200022E2A
:1024A000A06201D1580005E003225A4303F0010362
:1024B00003EB520000F2FF13B1EB532FFFF445AFD3
:1024C00000204FF0FF31032E2161E0605AD194F8D3
:1024D000652094F86430607143EA02216A186261F1
:1024E000607804F13401012300F012FE002849D184
:1024F00094F8330294F8322242EA0023314819B2A8
:1025000081423FD194F8362094F83730110441EAE3
:10251000036094F8343094F83520184340EA0221DF
:10252000294881422ED194F81A2294F81B321104C2
:1025300041EA036094F8183294F81922184340EAEB
:102540000221224881421DD194F8223294F823229C
:10255000190441EA026094F8202294F821321043D1
:1025600094F81E2240EA032194F81F02E16013044C
:1025700043EA006194F81C0294F81D22014341EAE9
:1025800002232361124926700888421C93B200205E
:102590000B80E38020632071BDE8F0810B20BDE853
:1025A000F0810C20BDE8F0812846BDE8F0810320D1
:1025B000BDE8F0810A20BDE8F0810120BDE8F0818E
:1025C0003C10002055AAFFFF5252614172724161D6
:1025D0003810002000000000000000000000000093
:1025E00038B5036B994204460D460CD0FFF798FDB1
:1025F00058B9607804F134012A46012300F088FDBF
:1026000018B9256338BD002038BD012038BD000051
:10261000836902399A1E914204D28278C06A02FB11
:10262000010070470020704700000000000000001B
:102630000129F8B504460D465DD9836999425AD2FD
:102640000178022928D0032937D0012950D1426AC4
:1026500005EB550602EB5621FFF7C2FF002847D1D4
:10266000F005636A04EBD0570136204603EB562190
:1026700097F83470FFF7B4FF002839D1F60504EB62
:10268000D654EB0794F8341047EA012201D510091B
:10269000F8BD1005000DF8BD426A02EB1521FFF7E9
:1026A0009FFF28BB2D06ED0D6119641991F8343098
:1026B00094F8350043EA0020F8BD436A03EBD511D6
:1026C000FFF78EFFA0B96D06ED0D6119641991F841
:1026D000370091F8362034310306497843EA024244
:1026E00094F8343042EA0120184320F07040F8BDDD
:1026F0004FF0FF30F8BD0120F8BD000000000000E1
:1027000070B504460D46E1808168012901D102209F
:1027100070BD03689A699142F9D271B9187803289B
:1027200001D1996A49B919890020A942E060EED91E
:102730009B6A03EB1512226119E09E783601B542BF
:102740000ED32068FFF774FF421C014618D0012801
:10275000DDD923689A699042D9D2AD1BADB2EEE7BC
:10276000E1602068FFF754FF00EB1511216120683C
:1027700005F00F0500EB451134316161002070BD9B
:10278000012070BD000000000000000000000000FB
:102790000129F8B504460D46164672D98369994257
:1027A0006FD2017802293AD0032949D0012964D196
:1027B000426A05EB550702EB5721FFF711FF00288E
:1027C0005CD1F805C20D15F00105F3B207D0A118D0
:1027D00091F8340000F00F0141EA0313DBB2A218B4
:1027E000616A82F8343001200137207101EB5721F2
:1027F0002046FFF7F5FE002840D1FF05FA0D15B180
:10280000C6F3071607E0A318C6F3032693F834109F
:1028100021F00F073E43A71887F834602EE0416A85
:1028200001EB1521FFF7DCFE40BB2D06EB0DE21896
:10283000154682F83460C6F3072682F835601DE03D
:10284000426A02EBD511FFF7CBFEB8B96D06EB0D6E
:10285000E1180D4691F83720130603F07042164335
:10286000C6F30723320C81F83460360E81F8353018
:1028700081F8362081F8376000E0022001212171C3
:10288000F8BD0220F8BD00000000000000000000BC
:10289000F8B505460F4631B9C6686EB18069864203
:1028A00028BF012609E0FFF7C3FE01283BD9AB6929
:1028B000984239D33E4600E001263446A9690134E6
:1028C0008C4204D3012E01D80020F8BD02242846F2
:1028D0002146FFF7ADFE48B1431C02D14FF0FF3057
:1028E000F8BD01281FD0B442E8D1EDE728462146C3
:1028F0006FF07042FFF74CFF98B947B92A69EC6056
:10290000511C0CD0531E01202B61687107E0284632
:1029100039462246FFF73CFF0028EFD001E0204671
:10292000F8BD0128DAD00120F8BD00000000000049
:102930002DE9F843C6880446701C86B20F4616B9C6
:102940000420BDE8F8832369002BF9D016F00F08A6
:102950005AD1591C2161E168206819B90189B14235
:10296000EED951E08278531E13EA16124CD1FFF7CC
:102970005FFE0128054602D80220BDE8F883411C0D
:1029800002D10120BDE8F883206881698D4235D3EA
:10299000002FD5D0E168FFF77BFF054600283CD02B
:1029A0000128E9D0421CECD02068FFF7B9FB0746AC
:1029B0000028E6D12068394634304FF40072FFF722
:1029C0007FFBD4F8009029464846FFF721FEC9F85E
:1029D000300020688278BA420DD901210171206847
:1029E000FFF79EFB0028CCD12068026B0137531CF7
:1029F0000363FFB2EDE7036BDF1B0763E56020684D
:102A00002946FFF705FE20612068E68000EB4812AA
:102A1000343262610020BDE8F8830720BDE8F88306
:102A20002DE9F0410B782F2B04460E4601D05C2B8C
:102A300000D101360025A56030781F2853D82046E4
:102A40002946FFF75DFE6561BDE8F0811178164605
:102A500001322F29FAD05C29F8D0A7692021384605
:102A60000B220025FFF72CFB284608212A46335C61
:102A70000130202B39D83618202B94BF0423002393
:102A8000002D7BD03878E52801D105203870082941
:102A900001D19200D2B202F00301012902F00C0030
:102AA00008BF43F01003042808BF43F00803FB727B
:102AB00020460021FFF724FE002832D0A169CB7AFE
:102AC00000284DD103F00402D1B2002974D161690C
:102AD000C87A00F01003DAB2002A4CD027683878A0
:102AE000FFF70EFBA0603246B0E72F2BC3D05C2B64
:102AF000C1D02E2B59D08D4240D213F0800F06D07A
:102B0000803BDFF8B8C01CF8033042F00302DFF866
:102B1000B08018F801EFBEF1000F32D09E45F8D119
:102B20002CE020682169FFF75BFD0028C6D16269AF
:102B300013789BB1D17A01F00803D9B249B9A769DA
:102B40000346D55CF95C01338D4202D10B2BF8D1E1
:102B5000B4E720460021FFF7EBFEADE70420ADE728
:102B6000042829D103F00401C8B2002814BF0420AE
:102B70000520BDE8F0810520BDE8F0810620BDE814
:102B8000F081A3F1410CBCF1190F02D842F002020E
:102B900008E0A3F1610EBEF1190F03D8203B42F00B
:102BA0000102DBB27B55013561E70829E6D19500CA
:102BB000EAB20D460B215AE7BDE8F081403A000821
:102BC000DF390008000000000000000000000000E5
:102BD00010B5044620682169FFF702FD50B963690A
:102BE0001978E52906D029B120460121FFF7A0FE7A
:102BF0000028EFD010BD0000000000000000000021
:102C000038B500210446FFF77BFD0546B8B92046DC
:102C1000FFF7DEFF054690B920682169FFF7E0FC69
:102C2000054660B9606929462022FFF749FA0B2260
:102C30006069A169FFF734FA236801221A712846F6
:102C400038BD00000000000000000000000000008F
:102C5000012970B504460D4622D9836999421FD2D5
:102C6000A069854205D220462946FFF7E1FC0646C9
:102C700008B9002070BD012812D0411C0ED020469A
:102C800029460022FFF784FD58B921694A1C03D068
:102C90004A1C0125226165713546E1E7012070BDBE
:102CA000022070BD000000000000000000000000D5
:102CB00048B9064A136803B1187009B100200870BA
:102CC0001160002070470B20704700BF3C100020AF
:102CD0002DE9F0478CB0164601910546002800F01A
:102CE00096800023036005A901A802F01E02FFF7E9
:102CF000E7FA8046002840F0938002A80B900199E3
:102D000005A8FFF78DFE0A9C18B9002C0CBF062001
:102D1000002016F01C0F06F01F0748D048B1042809
:102D200002D105A8FFF76CFF47F008070A9C48B1DD
:102D300075E0E07A10F0110F70D106F00401CEB208
:102D4000002E67D107F00802D3B2002B3DD000F06F
:102D500027FAC0F30726A073E673010C0026000EC5
:102D6000DDF814902174E67226776677A677E67709
:102D7000607499F800002146FFF7C2F90122A67697
:102D8000E6762675667589F804200646E8B1484659
:102D90003146D9F830A0FFF75BFF00283FD10598F6
:102DA000013EC6605146FFF71BFC70B137E00028BA
:102DB00035D1E17A01F01002D3B2002B2CD106F00C
:102DC0000206F6B20EB1C80728D407F00803D9B23C
:102DD00009B147F02007059E306B2C62E861AF71A6
:102DE00030782146FFF78CF92861A37FE27F190430
:102DF00041EA0260227F637F2E601043F28840EA3E
:102E000003210020E960A860A861AA8008E04FF0D3
:102E1000090805E0082002E0042000E007208046C1
:102E200040460CB0BDE8F087000000000000000044
:102E30002DE9F74F9A460023CAF800300446884629
:102E40001746FFF745F90546002840F0A080A17914
:102E5000080600F19980C90740F19880E068A268EF
:102E6000861AB74238BF3E46002E00F09080A16817
:102E7000CB0570D1206883785A1E02EA512313F0E3
:102E8000FF030CD109B9206904E061690193FFF7E0
:102E9000CFFB019B01280BD9421C55D06061D4F8AF
:102EA00000B0616901935846FFF7B2FB019B20B95E
:102EB000A07960F07F03A37166E05FEA562900EB1A
:102EC000030724D09BF8022009EB0300904288BF3F
:102ED000C3EB020941469BF801003A465FFA89F3C9
:102EE00000F016F9A17980BB01F04001CBB25BB1D3
:102EF000A269D71B4F4507D208EB472004F12401F4
:102F00004FF40072FFF7CCF84FEA492731E0A2698D
:102F1000BA421FD0A07900F04001CBB25BB104F1FE
:102F200024019BF80100012300F00AF9A17960B99E
:102F300021F04002A27121463A4651F8240B0123A8
:102F4000407800F0E5F828B1A17961F07F05A5711E
:102F500001251CE0A761A768F905CB0DC3F5007733
:102F6000BE4238BF3746E118404624313A46FFF7A3
:102F700097F8A068DAF80030C119DA19A160B844EE
:102F8000CAF80020F61B6FE7022500E00725284657
:102F9000BDE8FE8F000000000000000000000000FF
:102FA00070B50446FFF794F800284ED1A37903F0DA
:102FB0002002D1B2002948D003F04000C3B26BB167
:102FC0002146012351F8242B5078A26900F0B8F86B
:102FD000002839D1A67926F04001A1712068E16965
:102FE000FFF7FEFA0646002E2FD1256AE87A40F058
:102FF0002003EB72E2682A77A189080A6877E389DF
:10300000AB77E27BEA7721690B0C1A0AC1F3072040
:10301000A9762B756A75E87600F0C2F8A875030CDE
:10302000C0F30721000EE97568762B76AE74EE7456
:10303000A2792368012022F02001A1711871206873
:10304000BDE87040FFF794B8012070BD000000009B
:1030500010B50446FFF7A4FF00B9206010BD0000C2
:103060002DE9F34106460F469046054600247B1E97
:103070009C420FDA01224046694601ABFFF7D8FEB9
:103080000198012806D19DF8001001340A2905F89D
:10309000011BECD100222A70944214BF3046104626
:1030A000BDE8FC81000000000000000000000000FE
:1030B00010B558B907480479053C18BF0124FEF73C
:1030C00007FD20B144F00400C4B200E00224204611
:1030D00010BD00BFBC0D002000000000000000007B
:1030E00010B558B907480479053C18BF0124FEF70C
:1030F000EFFC20B144F00400C4B200E002242046FA
:1031000010BD00BFBC0D002000000000000000004A
:1031100010B50C4648B907480179052907D1114671
:103120002246BDE81040FDF723BE042010BD032059
:1031300010BD00BFBC0D002000000000000000001A
:1031400010B50C4648B907480179052907D1114641
:103150002246BDE81040FDF7E3BD042010BD03206A
:1031600010BD00BFBC0D00200000000000000000EA
:1031700088B903290FD8DFE801F00C0205090749D7
:103180008B6A05E04FF40070108002E04FF480730A
:103190001360002070470420704700BFBC0D002062
:1031A0004FF4041070470000000000000000000011
:1031B0000D4B10B5596872B60C484FF00062426072
:1031C00000230B4A03F1800403F1200052F824404D
:1031D0000133082B42F82040F3D1034A106880F3F2
:1031E0000888884710BD00BF0000020800ED00E01D
:1031F00000E100E00000000000000000000000000E
:10320000154B70B5A3F58065012202214FF40044EF
:103210005A83460059836C8305250024B4420F4825
:103220000ADA416981F40043436101344FF4FA70D2
:10323000FDF7D6FBE4B2F1E74FF4004343834FF4CC
:10324000FA60FDF7CDFB6A1E12F0FF05E5D1BDE87F
:103250007040FFF7ADBF00BF000402400000024015
:103260000620FFF7CDBF00000000000000000000B6
:1032700008B9FFF7F5BF704700000000000000002C
:103280000F2A2DE9F00340F2958041EA00039B07E5
:1032900040F092800C6804604D6845608E68A2F131
:1032A00010038660CC681D460F2DC460C3F3001662
:1032B00001F1100400F1100322D966B126681E60E6
:1032C00066685E60A6689E60E668103DDE60103449
:1032D00010330F2D14D926681E6066685E60A668DC
:1032E0009E60E668DE6026691E6166695E61A669A9
:1032F0009E61E669203DDE61203420330F2DEAD83F
:10330000A2F1100323F00F0402F00F031034032B7B
:1033100000EB0408214451D9A3F104090B464FEAFC
:10332000990901EB890C53F8046BC1EB0C05444679
:103330000CF1040C634544F8046BC5F3800512D00E
:103340002DB153F8045B634544F8045B0BD01E4673
:10335000254656F8047B45F8047B5F68331D67609B
:103360002C1D6345F3D109F101039C00091902F0FA
:1033700003024444DAB123460D7803F8015BA21836
:10338000E4431419934204F0010410D02CB111F855
:10339000014F03F8014B934209D04D781C4604F8C5
:1033A000015B8D785D70631C02319342F5D1BDE8FD
:1033B000F00370470446DDE70446DCE744461A465E
:1033C000D8E700BF0000000000000000000000007F
:1033D00020F0030110F00300C0F1000051F8043B9D
:1033E00000F1040C4FEACC0C6FF000021CBF22FA73
:1033F0000CF213434FF0010C4CEA0C2C4CEA0C4C31
:10340000A3EB0C0222EA030212EACC1204BF51F829
:10341000043B0430F4D013F0FF0F1FBF013013F44E
:103420007F4F013013F47F0F18BF0130704700BF8A
:1034300041EA00039B07F0B475D1032A73D90B4608
:10344000161F53F8045BA5F1013727EA050717F0AB
:10345000803F0446C6F3800C31D10446032E324629
:1034600044F8045B2AD9BCF1000F0AD0194653F87E
:10347000045BA5F1013626EA050616F0803F18D058
:103480001DE01E46194656F8045BA5F1013727EAF0
:10349000050717F0803F12D144F8045B5D68A5F181
:1034A0000133314623EA0506043A0B1D16F0803F2E
:1034B00005D1043A032A44F8045BE2D8194682B3E2
:1034C0000D78013A04F8015B9DB112F0010F23461B
:1034D0002BD11C462AB311F8015F013A04F8015BB5
:1034E0003DB111F8015F5D70631C013A1C46002D6F
:1034F000EFD1B2B12346002103F8011BA518E44324
:103500002A19AB4202F001040BD01CB103F8011BD5
:10351000AB4206D01A4602F8011B5970531CAB424D
:10352000F8D1F0BC70470446C9E7234611F8015FA3
:1035300003F8015B013A1C46002DCAD1D9E700BF50
:103540002DE9F00F4A4C82B0D4F800C00190084633
:10355000044614F8015B0CEB05062046777807F06B
:103560000806F7B2002FF3D12D2D62D02B2D03BF0B
:103570002446BB4614F8015BBB46002B41D1302DDD
:1035800043D00A239A46BBF1000F0CBF6FF00046F0
:103590004FF00046B6FBFAF900200AFB19670097C6
:1035A00080460CE0303DAB421BDD461C05D0C845D3
:1035B00039D835D00AFB0858012014F8015B0CEB10
:1035C0000506767806F00407FFB2002FEAD116F060
:1035D000030606D0012E14BF57263726AD1BAB427B
:1035E000E3DC431C2AD0BBF1000F01D0C8F1000876
:1035F000002A31D0D0B94046116002B0BDE8F00FCA
:103600007047102BBED1302DBCD12578782D25D018
:10361000582D23D043BB4FF0080A30255346B2E75C
:1036200000988542C6DD4FF0FF30C6E74046611E78
:10363000E2E714F8015B4FF0010B9EE7BBF1000FCE
:1036400001990CBF6FF000404FF0004022230B6047
:10365000002AD2D0611ECFE74046CEE74FF0100AD5
:103660006578534602348EE79A4630258BE700BFD3
:103670000008002000000000000000000000000022
:1036800070B440F63044C2F2000406460D4620688D
:10369000134631462A4670BCFFF752BF00000000B7
:1036A0006368565452657365744928292C20233168
:1036B000000000000000000000000000000000000A
:1036C000636853636852656164794928292C202313
:1036D00031000000000000000000000000000000B9
:1036E0006368546864526573756D6528292C2023BE
:1036F00031006368546864457869745328292C2024
:103700002331000000000000000000000000000065
:10371000B11A0008D11A0008610B0008010E000858
:10372000710D0008210D0008010D0008410B000873
:103730006D6D63436F6E6E65637428292C20233191
:1037400000736463577269746528292C2023310043
:103750007364635265616428292C202331007364EB
:1037600063446973636F6E6E65637428292C20232C
:103770003100736463537461727428292C202331DF
:103780000073646353746F7028292C2023310073F5
:103790006463476574416E64436C6561724572721F
:1037A0006F727328292C2023310073646345726182
:1037B000736528292C202331000000000000000040
:1037C000106002400860024000000B0028600240C8
:1037D0000860024006010C004060024008600240A0
:1037E00010020D00586002400860024016030E00EF
:1037F000706002400C60024000040F0088600240CC
:103800000C60024006051000A06002400C600240FF
:1038100010061100B86002400C60024016072F002D
:103820001064024008640240000838002864024026
:1038300008640240060939004064024008640240FE
:10384000100A3A005864024008640240160B3B001C
:10385000706402400C640240000C3C00886402402A
:103860000C640240060D4400A06402400C64024057
:10387000100E4500B86402400C640240160F46006A
:103880007364635F6C6C645F737461727428292C59
:10389000202331007364635F6C6C645F73746172C6
:1038A000745F646174615F7472616E736163746983
:1038B0006F6E28292C202331007364635F6C6C6465
:1038C0005F73746172745F646174615F7472616E5E
:1038D00073616374696F6E28292C20233200000005
:1038E000A000A86A00000000F000FC7F555555A517
:1038F000FF7F00000077000010AA0A0085AAA4A894
:10390000000C0000F5FFF0FC5A555555FCFF000077
:10391000005055770044505503A0AA020000000053
:1039200003F0FFF355555505FFFF00000000008828
:10393000CCCC0C0024100401000000003C0000016D
:1039400055555556FFFF0000000C00000000000018
:103950005401000000000000FC030C0055555555B3
:10396000FFFF000000000000000000000000000059
:10397000000000000000000055555555FFFF0000F5
:103980000000000000000000000000000000000037
:103990000000000055555555FFFF000000000000D5
:1039A0000000000000000000000000000F00000008
:1039B00050555555FFFF00000000000000000000BA
:1039C00000000000000000000000000055555555A3
:1039D000FFFF0000000000000000000000000000E9
:1039E000222A2B2C3A3B3C3D3E3F5B5D7C7F0022F4
:1039F0002A2B2C2E3A3B3C3D3E3F5B5D7C7F00EB0F
:103A0000FE904D53444F53352E30004E4F204E41C3
:103A10004D45202020204641543332202020004EA6
:103A20004F204E414D45202020204641542020204B
:103A30002020000000000000000000000000000046
:103A4000808182838485868788898A8B8C8D8E8FFE
:103A500090919293949596979899AD9B8C9DAE9FDB
:103A6000A021A2A3A4A5A6A7A8A9AAABACADAEAF5E
:103A7000B0B1B2B3B4B5B6B7B8B9BABBBCBDBEBFCE
:103A8000C0C1C2C3C4C5C6C7C8C9CACBCCCDCECFBE
:103A9000D0D1D2D3D4D5D6D7D8D9DADBDCDDDEDFAE
:103AA000C0C1C2C3C4C5C6C7C8C9CACBCCCDCECF9E
:103AB000D0D1D2D3D4D5D6F7D8D9DADBDCDDDE9FAE
:103AC0004B55524F424F582E4845580000000000B9
:103AD00000000000000000000000000000000000E6
:103AE00000202020202020202020282828282820CE
:103AF00020202020202020202020202020202020C6
:103B0000208810101010101010101010101010102D
:103B1000100404040404040404040410101010101D
:103B200010104141414141410101010101010101E7
:103B30000101010101010101010101011010101039
:103B400010104242424242420202020202020202B9
:103B5000020202020202020202020202101010100D
:103B60002000000000000000000000000000000035
:103B70000000000000000000000000000000000045
:103B80000000000000000000000000000000000035
:103B90000000000000000000000000000000000025
:103BA0000000000000000000000000000000000015
:103BB0000000000000000000000000000000000005
:103BC00000000000000000000000000000000000F5
:103BD00000000000000000000000000000000000E5
:103BE00000000000000000000000000000000000D5
:043BF000430000008E
:103BF800E03A00080000000000000000F40A00207D
:103C08005C0B0020C40B0020000000000000000036
:103C1800000000000000000000000000000000009C
:103C2800000000000000000000000000F03B000859
:103C3800000000000000000000000000000000007C
:103C4800000000000000000000000000000000006C
:103C5800000000000000000000000000000000005C
:103C6800000000000000000000000000000000004C
:103C7800000000000000000000000000000000003C
:103C8800000000000000000000000000000000002C
:103C9800000000000000000000000000000000001C
:103CA80001000000000000000E33CDAB34126DE6B9
:103CB800ECDE05000B000000000000000000000022
:103CC80000000000000000000000000000000000EC
:103CD80000000000000000000000000000000000DC
:103CE80000000000000000000000000000000000CC
:103CF80000000000000000000000000000000000BC
:044028000808002064
:04000005080003D11B
:00000001FF
