:020000040800F2
:1000000000040020B1010008A1020008A1020008BC
:10001000A1020008A1020008A1020008A102000834
:10002000A1020008A1020008A1020008E1020008E4
:10003000A1020008A1020008A1020008C1020008F4
:10004000A1020008A1020008A1020008A102000804
:10005000A1020008A1020008A1020008A1020008F4
:10006000A1020008A1020008A1020008F114000882
:1000700051150008B1150008111600087116000886
:10008000D116000831170008A1020008A1020008DB
:10009000A1020008A1020008A1020008A1020008B4
:1000A000A1020008A1020008A1020008A1020008A4
:1000B000A1020008A1020008A1020008A102000894
:1000C000A1020008A1020008A1020008A102000884
:1000D000A1020008A1020008A1020008A102000874
:1000E000A1020008A1020008A1020008A102000864
:1000F000A1020008A1020008A1020008911700084F
:10010000A1020008A1230008A1020008A102000822
:10011000A1020008A1020008A1020008A102000833
:10012000F117000851180008B1180008111900084B
:1001300071190008A1020008A1020008A10200082C
:10014000A1020008A1020008A1020008A102000803
:10015000D1190008311A0008911A0008A1020008FC
:10016000A1020008A1020008A1020008A1020008E3
:10017000A1020008A1020008A1020008A1020008D3
:08018000A1020008A102000821
:10019000704700BFAFF30080AFF30080AFF3008083
:1001A000FEE700BFAFF30080AFF30080AFF3008045
:1001B00072B640F60004C2F2000484F309884FF0DE
:1001C000020484F31488BFF36F8F40F20004C2F27C
:1001D000000440F20045C2F2000504E04FF0553340
:1001E000236004F10404AC42F8D340F20044C2F2AC
:1001F000000440F60005C2F2000504E04FF055335C
:10020000236004F10404AC42F8D302F0A9FD46F6E1
:10021000E855C0F6000540F60004C2F2000405E00F
:100220002B68236004F1040405F1040540F634430F
:10023000C2F200039C42F3D340F63844C2F20004F9
:1002400041F2A835C2F2000504E04FF0000323603C
:1002500004F10404AC42F8D3FFF79AFF40F288148B
:10026000C0F6000403E02368984704F1040440F258
:100270008813C0F600039C42F5D305F001FE40F25E
:100280008814C0F6000403E02368984704F10404CE
:1002900040F28813C0F600039C42F5D3FFF780FFBD
:1002A000FEE700BFAFF30080AFF30080AFF3008044
:1002B00072B6FEE7AFF30080AFF30080AFF30080CB
:1002C00008B500F045F800F08BF900F049F800F0AF
:1002D0004FF808BDAFF30080AFF30080AFF30080AC
:1002E00010B582B0EFF309840194019B03F1200360
:1002F0000193019B83F3098800F032F802B010BD2E
:1003000008B54FF46D43CEF200034FF000029A603F
:100310004FF46D43CEF200034FF44072C0F2FA5234
:10032000DA604FF007004FF0100100F0E1F84FF0F5
:100330000A004FF4007100F0DBF84FF00B004FF0B3
:10034000800100F0D5F808BDAFF30080AFF3008066
:100350004FF0200383F31188704700BFAFF3008094
:100360004FF0000383F31188704700BFAFF30080A4
:1003700010B582B0FFF7ECFF4FF46D43CEF20003EF
:100380005B6803F40063002B29D0EFF30984019428
:10039000019BA3F120030193019B83F30988019B37
:1003A0004FF08072DA6140F6F843C2F200031B6836
:1003B0009A6840F6F843C2F200031B699B689A42B0
:1003C00006D9019A40F2F133C0F60003936108E0C8
:1003D000019A40F2F433C0F60003936101E0FFF7A5
:1003E000BFFF02B010BD00BFAFF30080AFF30080CD
:1003F00000F086FB00DF00BFAFF30080AFF30080AA
:1004000003460A462DE9F04FC2F80CD0D3F80CD0C1
:10041000BDE8F08FAFF30080AFF30080AFF3008052
:1004200000B5FFF79DFF2846A04700F0F1FB5DF8FF
:1004300004FB00BFAFF30080AFF30080AFF3008098
:1004400010B485B001900091019B03F003034FEAC3
:10045000C30303934FF46143CEF20003019A4FEAC2
:1004600092004FF46142CEF2000201994FEA9101ED
:1004700001F1C00152F82110039A4FF0FF0404FA71
:1004800002F26FEA02021140039A009C04FA02F29F
:10049000114300F1C00243F822104FF46143CEF241
:1004A0000003019A4FEA5212019901F01F014FF027
:1004B000010000FA01F102F1600243F822104FF44A
:1004C0006143CEF20003019A4FEA5212019901F002
:1004D0001F014FF0010000FA01F143F8221005B0AE
:1004E00010BC7047AFF30080AFF30080AFF3008023
:1004F00010B485B001900091019B03F003034FEA13
:10050000C30303934FF46D43CEF20003019A4FEA05
:1005100092004FF46D42CEF2000201994FEA910130
:1005200001F1060152F82110039A4FF0FF0404FA7A
:1005300002F26FEA02021140039A009C04FA02F2EE
:10054000114300F1060243F8221005B010BC7047B9
:1005500082B00190FEE700BFAFF30080AFF30080F0
:1005600000B583B0FFF7CCFE00F06AF900F0C0F8E8
:1005700000F08EFB00F0F4FB40F6C840C2F2000031
:100580004FF0400100F0C4FA024640F6F843C2F2D0
:1005900000031A6140F6F843C2F200031B694FF0F2
:1005A00001021A744FF0000383F3118862B64FF012
:1005B0000003009340F63840C2F200004FF0900173
:1005C0004FF0010240F25153C0F6000300F0F0FA80
:1005D00003B000BDAFF30080AFF30080AFF3008045
:1005E00000B583B040F6E843C2F20003DB6803F1D4
:1005F000010240F6E843C2F20003DA6040F6E84345
:10060000C2F200031A6840F6E843C2F200039A42BD
:1006100031D040F6E843C2F200031B689A6802F149
:10062000FF329A601DE0019BDB680093019B4FF055
:100630000002DA60019B1A6840F6E843C2F2000348
:100640005360019B1A6840F6E843C2F200031A6047
:10065000FFF786FE019B1A69009B10469847FFF73B
:1006600077FE40F6E843C2F200031B680193019B4A
:100670009B68002BD7D003B000BD00BFAFF3008054
:1006800000B583B0019040F6E443C2F20003019A42
:100690001A6005F0C5FEFFF70BFE03B000BD00BFFA
:1006A00084B00190019B1B680393039B1A68019B14
:1006B0001A60019B1B68019A5A60039B184604B09C
:1006C000704700BFAFF30080AFF30080AFF300804E
:1006D00082B00190019B5B68019A12681A60019BCD
:1006E0001B68019A52685A60019B184602B0704715
:1006F00040F6E843C2F2000340F6E842C2F20002CC
:100700005A6040F6E843C2F200035A6840F6E843F4
:10071000C2F200031A6040F6E843C2F200034FF051
:10072000FF329A6040F6E843C2F200034FF0000245
:10073000DA607047AFF30080AFF30080AFF3008062
:1007400086B00390029101920093039B002B04D08A
:10075000019B002B01D0029B002B039B009A1A6186
:10076000039B019ADA6040F6E843C2F200031B687B
:10077000059307E0059B9B68029AD31A0293059B99
:100780001B680593059B9A68029B9A42F2D3039BD0
:10079000059A1A60039B1B685A68039B5A60039B67
:1007A0005B68059A03995160059A52681A60039B29
:1007B000029A9A60059A40F6E843C2F200039A4210
:1007C00005D0059B9A68029BD21A059B9A6006B0D9
:1007D000704700BFAFF30080AFF30080AFF300803D
:1007E00000B583B00190019BDB68002B05D146F674
:1007F0007000C0F60000FFF743FF019B1A6840F647
:10080000E843C2F200039A4208D0019B1B68019A98
:1008100012689168019A92688A189A60019B5B68D5
:10082000019A12681A60019B1B68019A52685A600B
:10083000019B4FF00002DA6003B000BDAFF300800F
:1008400040F6F843C2F2000340F6F842C2F200025A
:100850005A6040F6F843C2F200035A6840F6F84383
:10086000C2F200031A6040F6F843C2F200034FF0F0
:1008700000029A60704700BFAFF30080AFF30080C2
:1008800000B585B00190019B1B7C002B03D0019B20
:100890001B7C0E2B05D146F69000C0F60000FFF73A
:1008A000EFFE019B4FF000021A7440F6F843C2F2CB
:1008B00000030393039B1B680393039B9A68019BAC
:1008C0009B689A42F6D2019B039A1A60039B5A686E
:1008D000019B5A60019B5B68039A01995160039ADE
:1008E00052681A60019B184605B000BDAFF3008046
:1008F00000B585B003468DF8073040F6F843C2F2E4
:1009000000031B690393039B9DF807201A7440F6AC
:10091000F840C2F20000FFF7C3FE024640F6F8437B
:10092000C2F200031A6140F6F843C2F200031B69E9
:100930004FF001021A7440F6F843C2F200031B693B
:1009400018460399FFF75CFD05B000BDAFF30080CA
:1009500000B585B00190019B0393FFF7F9FC039B61
:100960001B7C032B06D00D2B0AD0002B0BD1FFF7DD
:10097000F7FC11E0039B5B699A6802F101029A603F
:100980000398FFF7A5FE039B4FF0FF325A610398CF
:10099000FFF776FFFFF7E4FC05B000BDAFF3008082
:1009A00000B589B0034600918DF80730009BB3F184
:1009B000FF3F1AD040F6F843C2F200031B6903AAB6
:1009C0001046009940F65112C0F60002FFF7B8FE3B
:1009D0009DF807301846FFF78BFF069B002B09D0C8
:1009E00003AB1846FFF7FCFE04E09DF807301846FD
:1009F000FFF77EFF40F6F843C2F200031B695B6914
:100A0000184609B000BD00BFAFF30080AFF300800F
:100A100000B585B001900091019B009A5A61019B3D
:100A20009A6840F6F843C2F200031B699B689A4239
:100A300003D80198FFF724FF16E040F6F843C2F20E
:100A400000031B691846FFF71BFF039040F6F843AD
:100A5000C2F20003019A1A61019B4FF001021A745D
:100A600001980399FFF7CCFC05B000BDAFF30080FF
:100A700000B583B040F6F843C2F200031B6900934F
:100A800040F6F840C2F20000FFF70AFE024640F6C8
:100A9000F843C2F200031A6140F6F843C2F20003C1
:100AA0001B694FF001021A74009B4FF000021A7488
:100AB00040F6F843C2F200030193019B1B680193C7
:100AC000019B9A68009B9B689A42F6D8009B019A0A
:100AD0001A60019B5A68009B5A60009B5B68019AF0
:100AE00000995160019A52681A6040F6F843C2F2C8
:100AF00000031B6918460099FFF782FC03B000BD94
:100B000008B5FFF7B5FF08BDAFF30080AFF3008075
:100B100082B001900091019B009A9A60019B4FF076
:100B200002021A74019B4FF000025A74019B4FF0AD
:100B300000029A61019B184602B07047AFF3008033
:100B400000B587B00390029101920093039B059337
:100B5000039B002B07D0029B7F2B04D9019B7F2B8B
:100B600001D8009B002B029BA3F12403039AD21807
:100B7000059BDA60059BDB68009A1A60059BDB68C1
:100B8000089A5A60059BDA6840F22143C0F60003D8
:100B9000136205980199FFF7BBFF0346184607B09B
:100BA00000BD00BFAFF30080AFF30080AFF3008063
:100BB00000B589B00590049103920293FFF7C8FB3A
:100BC0000A9B009305980499039A029BFFF7B8FFCC
:100BD000079007984FF00001FFF71AFFFFF7C0FBDF
:100BE000079B184609B000BDAFF30080AFF300804B
:100BF00000B583B00190FFF7ABFB4FF00600019901
:100C0000FFF7CEFEFFF7ACFB03B000BDAFF30080F3
:100C100000B583B00190FFF79BFB019800F008F846
:100C200003B000BDAFF30080AFF30080AFF30080EE
:100C300000B585B0019040F6F843C2F200031B698D
:100C40000393039B019A5A614FF00E00FFF750FE89
:100C500046F6C400C0F60000FFF712FD05B000BD67
:100C600082B001900091019B002B01D0009B002BD2
:100C7000019A019B5A60019B5A68019B1A60019B73
:100C8000009A9A6002B07047AFF30080AFF3008023
:100C900041F2A833C2F2000303F1070323F0070374
:100CA0001A4640F60C53C2F200031A604CF20003DD
:100CB000C2F2010323F007031A4640F61053C2F2B2
:100CC00000031A60704700BFAFF30080AFF30080ED
:100CD00000B585B00190FFF73BFB019800F008F8E4
:100CE0000390FFF73DFB039B184605B000BD00BF16
:100CF00084B00190019B03F1070323F007030193E4
:100D000040F61053C2F200031B681A4640F60C531B
:100D1000C2F200031B68D31A1A46019B9A4202D200
:100D20004FF0000312E040F60C53C2F200031B68C0
:100D3000039340F60C53C2F200031A68019BD218C9
:100D400040F60C53C2F200031A60039B184604B02D
:100D5000704700BFAFF30080AFF30080AFF30080B7
:100D600008B540F61853C2F2000340F6D142C0F66F
:100D700000021A6040F61853C2F200034FF000025E
:100D80009A6040F61853C2F200034FF00002DA6096
:100D900002484FF00101FFF763FF08BD280D002056
:100DA00008B500F0F5FF46F64030C0F6000001F04F
:100DB00017FF00F0D5F800F073FB02F009F808BD4A
:100DC00088B0039002910192029A019B9A4203D348
:100DD000029A019BD31A1F2B019B4FEA53130793CF
:100DE000019B03F01F030693029B4FEA53130593E5
:100DF000029B03F01F0303F101034FF0010202FA0B
:100E000003F303F1FF330493079A059B9A4217D229
:100E1000079B4FEA8303039AD3181A68069B22FAAA
:100E200003F2059B4FEA83030399CB181968049BCF
:100E30001940069BC3F1200301FA03F313430AE0B0
:100E4000079B4FEA8303039AD3181A68049B1A403E
:100E5000069B22FA03F3184608B07047AFF30080F0
:100E600000B587B00190019B03F10C031B684FEAAA
:100E70009373002B02D0012B26D032E001984FF063
:100E800049014FF03E02FFF79BFF059001984FF09C
:100E900031014FF02F02FFF793FF049001984FF0BC
:100EA00053014FF05002FFF78BFF0390059B03F1B6
:100EB0000102049B03F1020302FA03F2039BA3F174
:100EC000090302FA03F30EE001984FF045014FF0D9
:100ED0003002FFF775FF034603F101034FEA832356
:100EE00001E04FF00003184607B000BDAFF30080EB
:100EF00000B585B00190019B9A6B03AB01984FF050
:100F00000D0101F0F5FB0346002B07D1039A4EF2C9
:100F10000803CFF6FF531340002B02D04FF001031C
:100F200015E0039B4FEA532303F00F03042B04D077
:100F3000042B0AD3072B08D802E04FF0000306E089
:100F40004FF00100FFF754FED5E74FF001031846BC
:100F500005B000BDAFF30080AFF30080AFF30080B9
:100F600008B501F045FA08BDAFF30080AFF300808B
:100F700082B00190019A46F66023C0F60003136028
:100F8000019B4FF001021A71019B4FF000025A635E
:100F9000019B4FF00002DA62019B4FF000029A625F
:100FA00002B07047AFF30080AFF30080AFF3008072
:100FB00000B583B001900091FFF7CAF9019B1B793E
:100FC000012B09D0019B1B79022B05D046F6E000CE
:100FD000C0F60000FFF754FB019B009ADA6201980B
:100FE00001F026FA019B4FF002021A71FFF7B8F9DF
:100FF00003B000BDAFF30080AFF30080AFF300801B
:1010000000B587B00190019B1B79022B09D0019B91
:101010001B79052B05D046F60010C0F60000FFF73F
:101020002FFB019B4FF003021A71019801F070FA37
:1010300001984FF000014FF0000201F0E9FA03AB14
:1010400001984FF008014FF4D57201F051FB0346AF
:1010500083F00103DBB2002B21D0019B4FF0010292
:101060001A63039B4FEA132303F00F03012B40F095
:10107000FA8003AB01984FF037014FF0000201F006
:1010800037FB0346002B40F0FD80039A4EF2080325
:10109000CFF6FF531340002B40F0F48003E0019B98
:1010A0004FF000021A63019B1B6B03F00F03012B2F
:1010B00005D14FF00003CCF21003049304E04FF08D
:1010C0000003C8F2100304934FF00003059303AB31
:1010D00001984FF037014FF0000201F009FB034681
:1010E000002B40F0CF80039A4EF20803CFF6FF5357
:1010F0001340002B40F0C68003AB01984FF029014C
:10110000049A01F0ADFA0346002B40F0AE80039B39
:10111000002B0BDA039B03F08043002B13D0019BC1
:101120001B6B43F01002019B1A630CE0059B03F15B
:1011300001030593059B632B00F299804FF00A0091
:10114000FFF756FDC3E700BF019B03F108030198B9
:101150004FF002014FF0000201F012FB0346002B9A
:1011600040F08780019B03F1380301984FF00301A1
:101170004FF0000201F0BCFA0346002B7BD1019B2B
:101180009A6B019B03F1180301984FF0090101F0DC
:10119000F7FA0346002B70D1019801F0E1F9019BA9
:1011A0009A6B03AB01984FF0070101F0A1FA0346D7
:1011B000002B64D103AB01984FF010014FF4007283
:1011C00001F096FA0346002B5CD1039A4EF2080315
:1011D000CFF6FF531340002B54D1019B1B6B03F040
:1011E0000F03012B2BD801984FF0010101F0E0F91A
:1011F000019B9A6B03AB01984FF0370101F078FA2D
:101200000346002B3ED1039A4EF20803CFF6FF535C
:101210001340002B36D103AB01984FF006014FF07D
:10122000020201F065FA0346002B2BD1039A4EF21D
:101230000803CFF6FF531340002B23D100BF019BBF
:1012400003F118031846FFF70BFE0246019B9A6252
:10125000019B9B6A002B14D0019B4FF005021A7171
:101260004FF0000317E000BF0CE000BF0AE000BF32
:1012700008E000BF06E000BF04E000BF02E000BFDE
:1012800000E000BF019801F07BF9019B4FF00202E2
:101290001A714FF00103184607B000BDAFF300808C
:1012A00000B583B00190FFF753F8019B1B79022B27
:1012B00009D0019B1B79052B05D046F61410C0F60A
:1012C0000000FFF7DDF9019B1B79022B04D1FFF72A
:1012D00047F84FF000031EE0019B4FF004021A7123
:1012E000FFF73EF80198FFF703FE0346002B09D0F5
:1012F000019801F045F9019B4FF002021A714FF07D
:10130000010308E0019801F03BF9019B4FF0020254
:101310001A714FF00003184603B000BDAFF3008010
:1013200000B587B00390029101920093039B002BBC
:1013300004D0019B002B01D0009B002B039B1B7949
:10134000052B05D046F62810C0F60000FFF798F9E7
:10135000029A009BD31803F1FF32039B9B6A9A42C7
:1013600008D9039B5B6B43F08002039B5A634FF0E9
:10137000010312E0039B4FF006021A7103980299D1
:10138000019A009B01F05CFB03468DF81730039B2C
:101390004FF005021A719DF81730184607B000BDCE
:1013A00000B587B00390029101920093039B002B3C
:1013B00004D0019B002B01D0009B002B039B1B79C9
:1013C000052B05D046F63810C0F60000FFF758F997
:1013D000029A009BD31803F1FF32039B9B6A9A4247
:1013E00008D9039B5B6B43F08002039B5A634FF069
:1013F000010312E0039B4FF007021A710398029950
:10140000019A009B01F06CFB03468DF81730039B9B
:101410004FF005021A719DF81730184607B000BD4D
:1014200000B585B00190019B1B79052B02D04FF0D0
:1014300001030FE0019B4FF008021A71019801F0BF
:101440009FFB03468DF80F30019B4FF005021A7188
:101450009DF80F30184605B000BD00BFAFF3008007
:1014600082B001900091019B002B01D0009B002BCA
:10147000019B1B79052B02D04FF0010309E0019B72
:101480009A6A009B5A60009B4FF400721A604FF0FA
:101490000003184602B07047AFF30080AFF300803E
:1014A00008B501F01DFC08BDAFF30080AFF300806C
:1014B00000B583B00190019B4FF001021A70019BAF
:1014C0004FF000025A60019B4FF000029A60019BAE
:1014D00003F10C0318464FF00101FFF7C1FB03B005
:1014E00000BD00BFAFF30080AFF30080AFF300801A
:1014F00000B583B04FF4C043C4F202031B6803F08D
:101500003D0301934FF4C043C4F202034FF03D0288
:101510009A6040F63C53C2F200031B68002B0CD0CB
:1015200040F63C53C2F200031A6840F63C53C2F244
:1015300000035B68184601999047FEF719FF03B056
:1015400000BD00BFAFF30080AFF30080AFF30080B9
:1015500000B583B04FF4C043C4F202031B684FEAE6
:10156000931303F03D0301934FF4C043C4F202030D
:101570004FF474629A6040F63C53C2F200039B68D9
:10158000002B0CD040F63C53C2F200039A6840F6A0
:101590003C53C2F20003DB68184601999047FEF7FE
:1015A000E7FE03B000BD00BFAFF30080AFF30080E3
:1015B00000B583B04FF4C043C4F202031B684FEA86
:1015C000134303F03D0301934FF4C043C4F20203FD
:1015D0004FF474129A6040F63C53C2F200031B6948
:1015E000002B0CD040F63C53C2F200031A6940F6BF
:1015F0003C53C2F200035B69184601999047FEF71D
:10160000B7FE03B000BD00BFAFF30080AFF30080B2
:1016100000B583B04FF4C043C4F202031B684FEA25
:10162000935303F03D0301934FF4C043C4F202030C
:101630004FF074629A6040F63C53C2F200039B691B
:10164000002B0CD040F63C53C2F200039A6940F6DE
:101650003C53C2F20003DB69184601999047FEF73C
:1016600087FE03B000BD00BFAFF30080AFF3008082
:1016700000B583B04FF4C043C4F202035B6803F0CB
:101680003D0301934FF4C043C4F202034FF03D0207
:10169000DA6040F63C53C2F200031B6A002B0CD008
:1016A00040F63C53C2F200031A6A40F63C53C2F2C1
:1016B00000035B6A184601999047FEF759FE03B094
:1016C00000BD00BFAFF30080AFF30080AFF3008038
:1016D00000B583B04FF4C043C4F202035B684FEA25
:1016E000931303F03D0301934FF4C043C4F202038C
:1016F0004FF47462DA6040F63C53C2F200039B6A16
:10170000002B0CD040F63C53C2F200039A6A40F61C
:101710003C53C2F20003DB6A184601999047FEF77A
:1017200027FE03B000BD00BFAFF30080AFF3008021
:1017300000B583B04FF4C043C4F202035B684FEAC4
:10174000134303F03D0301934FF4C043C4F202037B
:101750004FF47412DA6040F63C53C2F200031B6B84
:10176000002B0CD040F63C53C2F200031A6B40F63B
:101770003C53C2F200035B6B184601999047FEF799
:10178000F7FD03B000BD00BFAFF30080AFF30080F2
:1017900000B583B04FF4C043C4F202035B684FEA64
:1017A000935303F03D0301934FF4C043C4F202038B
:1017B0004FF07462DA6040F63C53C2F200039B6B58
:1017C000002B0CD040F63C53C2F200039A6B40F65B
:1017D0003C53C2F20003DB6B184601999047FEF7B9
:1017E000C7FD03B000BD00BFAFF30080AFF30080C2
:1017F00000B583B04FF4C843C4F202031B6803F082
:101800003D0301934FF4C843C4F202034FF03D027D
:101810009A6040F63C53C2F200031B6C002B0CD0C4
:1018200040F63C53C2F200031A6C40F63C53C2F23D
:1018300000035B6C184601999047FEF799FD03B0D1
:1018400000BD00BFAFF30080AFF30080AFF30080B6
:1018500000B583B04FF4C843C4F202031B684FEADB
:10186000931303F03D0301934FF4C843C4F2020302
:101870004FF474629A6040F63C53C2F200039B6CD2
:10188000002B0CD040F63C53C2F200039A6C40F699
:101890003C53C2F20003DB6C184601999047FEF7F7
:1018A00067FD03B000BD00BFAFF30080AFF3008061
:1018B00000B583B04FF4C843C4F202031B684FEA7B
:1018C000134303F03D0301934FF4C843C4F20203F2
:1018D0004FF474129A6040F63C53C2F200031B6D41
:1018E000002B0CD040F63C53C2F200031A6D40F6B8
:1018F0003C53C2F200035B6D184601999047FEF716
:1019000037FD03B000BD00BFAFF30080AFF3008030
:1019100000B583B04FF4C843C4F202031B684FEA1A
:10192000935303F03D0301934FF4C843C4F2020301
:101930004FF074629A6040F63C53C2F200039B6D14
:10194000002B0CD040F63C53C2F200039A6D40F6D7
:101950003C53C2F20003DB6D184601999047FEF735
:1019600007FD03B000BD00BFAFF30080AFF3008000
:1019700000B583B04FF4C843C4F202035B6803F0C0
:101980003D0301934FF4C843C4F202034FF03D02FC
:10199000DA6040F63C53C2F200031B6E002B0CD001
:1019A00040F63C53C2F200031A6E40F63C53C2F2BA
:1019B00000035B6E184601999047FEF7D9FC03B00F
:1019C00000BD00BFAFF30080AFF30080AFF3008035
:1019D00000B583B04FF4C843C4F202035B684FEA1A
:1019E000931303F03D0301934FF4C843C4F2020381
:1019F0004FF47462DA6040F63C53C2F200039B6E0F
:101A0000002B0CD040F63C53C2F200039A6E40F615
:101A10003C53C2F20003DB6E184601999047FEF773
:101A2000A7FC03B000BD00BFAFF30080AFF30080A0
:101A300000B583B04FF4C843C4F202035B684FEAB9
:101A4000134303F03D0301934FF4C843C4F2020370
:101A50004FF47412DA6040F63C53C2F200031B6F7D
:101A6000002B0CD040F63C53C2F200031A6F40F634
:101A70003C53C2F200035B6F184601999047FEF792
:101A800077FC03B000BD00BFAFF30080AFF3008070
:101A900000B583B04FF4C843C4F202035B684FEA59
:101AA000935303F03D0301934FF4C843C4F2020380
:101AB0004FF07462DA6040F63C53C2F200039B6F51
:101AC000002B0CD040F63C53C2F200039A6F40F654
:101AD0003C53C2F20003DB6F184601999047FEF7B2
:101AE00047FC03B000BD00BFAFF30080AFF3008040
:101AF00082B040F63853C2F200034FF000021A6081
:101B00004FF0000301931CE046F68022C0F600026D
:101B100001990B464FEA43035B184FEA8303D3183E
:101B20001B684FF000021A6040F63C53C2F20003FB
:101B3000019A4FF0000143F83210019B03F10103B9
:101B40000193019B0F2BDFDD4FF4C043C4F202036E
:101B50004FF0FF329A604FF4C043C4F202034FF0DB
:101B6000FF32DA604FF4C843C4F202034FF0FF3291
:101B70009A604FF4C843C4F202034FF0FF32DA60B8
:101B800002B07047AFF30080AFF30080AFF3008086
:101B900000B585B00390029101920093039B5B7A9C
:101BA0004FF0010202FA03F31A4640F63853C2F22C
:101BB00000031B681340002B02D04FF0010380E0AC
:101BC000039B5B7A1A4640F63C53C2F2000301992C
:101BD00043F83210039B5B7A40F63C52C2F200029B
:101BE0004FEAC303D318009A5A60039B5B7A4FF005
:101BF000010202FA03F31A4640F63853C2F2000318
:101C00001B681A4340F63853C2F200031A6040F6CC
:101C10003853C2F200031B68DBB2002B0BD04FF429
:101C20006053C4F202034FF46052C4F20202126B1A
:101C300042F400121A6340F63853C2F200031B68E4
:101C400003F47F43002B0BD04FF46053C4F2020324
:101C50004FF46052C4F20202126B42F480021A6323
:101C6000039B1B68039A1268126822F01F021A6015
:101C7000039B1B681B6803F00103002BF8D1039B37
:101C80005B68039A127A4FF03D0101FA02F21A6082
:101C9000039B1B684FF000021A60039B1B684FF008
:101CA00021025A61019B002B09D0039B9B7A1A46A3
:101CB000029B4FEA031310461946FEF7C1FB4FF093
:101CC0000003184605B000BDAFF30080AFF30080FD
:101CD0004FF4E043C4F200034FF4E042C4F20002C8
:101CE000126842F480721A604FF46053C4F2020327
:101CF0001B6F03F44073B3F5807F0DD04FF4605336
:101D0000C4F202034FF480321A674FF46053C4F2F6
:101D100002034FF000021A674FF46053C4F202034B
:101D20004FF46052C4F20202126F42F001021A67CD
:101D300000BF4FF46053C4F202031B6F03F00203B1
:101D4000002BF6D04FF46053C4F202034FF46052FC
:101D5000C4F20202126B42F480221A634FF4E04391
:101D6000C4F200034FF4E042C4F20002526842F4AD
:101D700000725A6000BF4FF4E043C4F200035B6896
:101D800003F00803002BF6D0704700BFAFF30080CC
:101D900008B54FF46053C4F202031B694FF460535B
:101DA000C4F202034FF0FF321A614FF46053C4F2E1
:101DB00002034FF000021A614FF46053C4F20203B1
:101DC0005B694FF46053C4F202034FF0FF325A6173
:101DD0004FF46053C4F202034FF000025A614FF413
:101DE0006053C4F202034FF46052C4F20202126A5A
:101DF00062F080521A624FF46053C4F202034FF053
:101E000000021A624FF46053C4F202035B6A4FF49B
:101E10006053C4F202034FF0FF325A624FF4605332
:101E2000C4F202034FF000025A624EF21003CEF2E7
:101E3000000349F23F02C0F202025A604EF2100360
:101E4000CEF200034FF000029A604EF21003CEF281
:101E500000034FF007021A604EF6F053CEF2000373
:101E60004EF6F052CEF20002D26842F08072DA6092
:101E70004FF48053CEF200034FF48052CEF20002B2
:101E8000126842F001021A604FF46053C4F2020378
:101E90004FF46052C4F20202126C42F080521A6493
:101EA000FFF716FFFFF724FE08BD00BFAFF3008069
:101EB0004FF46053C4F202034FF080521A644FF49F
:101EC000E043C4F200034FF480421A6000BF4FF4B5
:101ED000E043C4F200035B6803F48043002BF6D0B8
:101EE0004FF46053C4F202034FF46052C4F2020292
:101EF000126842F001021A6000BF4FF46053C4F24E
:101F000002031B6803F00203002BF6D04FF460536A
:101F1000C4F202034FF46052C4F20202126842F4A7
:101F200080321A6000BF4FF46053C4F202031B6892
:101F300003F40033002BF6D04FF46053C4F20203D5
:101F40004FF46052C4F20202526F42F001025A672B
:101F500000BF4FF46053C4F202035B6F03F002034F
:101F6000002BF6D04FF46053C4F2020345F21A423C
:101F7000C0F240725A604FF46053C4F202034FF44F
:101F80006052C4F20202126842F080721A6000BF0E
:101F90004FF46053C4F202031B6803F00073002B7C
:101FA000F6D04FF46052C4F202024FF46053C4F210
:101FB000020399684FF41443C3F608030B4393607C
:101FC0004FF47053C4F2020340F205721A604FF4EA
:101FD0006053C4F202034FF46052C4F202029268EA
:101FE00042F002029A6000BF4FF46053C4F2020351
:101FF0009B6803F00C03082BF6D14FF46053C4F236
:1020000002034FF46052C4F20202526C42F4804266
:102010005A644FF46053C4F202034FF46052C4F2A6
:102020000202526E42F480425A667047AFF300805B
:1020300000B585B00390029101920093039B1B6B46
:1020400003F01003002B03D1029B4FEA43230293BA
:10205000019B012B15D903984FF01201029A009BA6
:1020600000F046FB0346002B08D1009B1A684EF295
:102070000803CFF6FF531340002B18D04FF0010395
:1020800017E003984FF01101029A009B00F030FB1B
:102090000346002B08D1009B1A684EF20803CFF6C6
:1020A000FF531340002B02D04FF0010301E04FF02B
:1020B0000003184605B000BDAFF30080AFF3008009
:1020C00000B585B00390029101920093039B1B6BB6
:1020D00003F01003002B03D1029B4FEA432302932A
:1020E000019B012B15D903984FF01901029A009B0F
:1020F00000F0FEFA0346002B08D1009B1A684EF24E
:102100000803CFF6FF531340002B18D04FF0010304
:1021100017E003984FF01801029A009B00F0E8FACC
:102120000346002B08D1009B1A684EF20803CFF635
:10213000FF531340002B02D04FF0010301E04FF09A
:102140000003184605B000BDAFF30080AFF3008078
:1021500000B585B0039002910192FEF7F9F84FF4B3
:102160003053C4F20103DB6B002B1ED0039BDB6BEF
:10217000002B05D046F68010C0F60000FEF780FA6E
:1021800040F6F843C2F200031A69039BDA634FF08A
:102190000200FEF7ADFB039BDB6B002B05D046F680
:1021A000A810C0F60000FEF76BFA4FF43053C4F2EB
:1021B00001035B6B03F48073002B04D1FEF7D0F8AE
:1021C0004FF0010334E000BF039B5B6C1B681B688E
:1021D00003F00103002BF7D1039B5B6C5B68039A50
:1021E000526C127A4FF03D0101FA02F21A604FF47C
:1021F0003053C4F2010340F2FF72C0F2C0029A638E
:102200004FF43053C4F201034FF00002DA62FEF7DC
:10221000A7F8029B012B09D903984FF00C014FF04E
:102220000002019B00F064FA034601E04FF0000356
:10223000184605B000BD00BFAFF30080AFF30080CB
:1022400084B0019000914FF000030393009B03F0D2
:102250000103002B03D0039B43F001030393009B76
:1022600003F00203002B03D0039B43F0020303930C
:10227000009B03F00403002B03D0039B43F00803EF
:102280000393009B03F00803002B03D0039B43F050
:1022900004030393009B03F01003002B03D0039B64
:1022A00043F010030393009B03F02003002B03D0A3
:1022B000039B43F020030393009B03F40073002B64
:1022C00003D0039B43F040030393019B5A6B039B92
:1022D0001A43019B5A6304B0704700BFAFF30080FC
:1022E00000B587B00390029101924FF43053C4F2CD
:1022F00001035B6B0593039B5B6C5B68039A526CF9
:10230000127A4FF03D0101FA02F21A60039B5B6CF6
:102310001B68039A526C1268126822F01F021A603E
:10232000039B5B6C1B681B6803F00103002BF7D158
:10233000039B5B6C5B68039A526C127A4FF03D0111
:1023400001FA02F21A604FF43053C4F2010340F272
:10235000FF72C0F2C0029A634FF43053C4F201031B
:102360004FF00002DA634FF43053C4F201034FF030
:102370000002DA6203980599FFF762FF029B012BC6
:1023800007D903984FF00C014FF00002019B00F0B9
:10239000AFF907B000BD00BFAFF30080AFF300801E
:1023A00008B5FDF7D5FF4FF43053C4F201034FF0E9
:1023B0000002DA6340F6BC53C2F20003DB6B002B71
:1023C0000ED040F6BC53C2F20003DB6B1846FEF79A
:1023D00057FA40F6BC53C2F200034FF00002DA6332
:1023E000FDF7BEFFFDF7C4FF08BD00BFAFF30080DF
:1023F00008B540F6BC50C2F20000FEF7B9FD40F649
:10240000BC53C2F200034FF00002DA6340F6BC5343
:10241000C2F20003054A5A6440F6BC53C2F20003FC
:102420004FF43052C4F201029A6408BD046B0008F4
:1024300000B585B00190019A4FF4A843C0F603039C
:102440001364019B1B6C43F4200343F02003019AA7
:102450001364019B1B79012B37D1019B5B6C1846E0
:102460004FF009014FF000024FF00003FFF790FB1F
:1024700003468DF80F309DF80F30002B05D046F63F
:10248000D010C0F60000FEF7FBF8019B5B6C1A68E9
:102490004FF43253C4F201039360019B5B6C1B68E1
:1024A0004FF007025A614FF031004FF09001FDF7F5
:1024B000C7FF4FF46053C4F202034FF46052C4F2FA
:1024C0000202526C42F400625A644FF43053C4F278
:1024D00001034FF000021A604FF43053C4F20103BD
:1024E0004FF000025A604FF43053C4F201034FF032
:1024F0000002DA624FF43053C4F201034FF00002DD
:102500005A6205B000BD00BFAFF30080AFF300809A
:1025100082B001904FF43053C4F201034FF07802BF
:102520005A604FF43053C4F201034FF43052C4F2F6
:102530000102126842F003021A604FF43053C4F2F1
:1025400001034FF43052C4F20102526842F4807227
:102550005A6002B0704700BFAFF30080AFF3008055
:1025600082B001904FF43053C4F201034FF4305263
:10257000C4F20102526822F0FF025A6002B07047B2
:1025800082B001904FF43053C4F201034FF00002C7
:102590005A604FF43053C4F201034FF000021A6046
:1025A00002B07047AFF30080AFF30080AFF300805C
:1025B00084B001900B468DF803304FF43053C4F2D1
:1025C00001035B6823F4C05303939DF80330012B90
:1025D0000AD0022B11D0002B18D14FF43053C4F283
:1025E0000103039A5A6011E04FF43053C4F201031F
:1025F000039A42F400625A6008E04FF43053C4F288
:102600000103039A42F480525A6000BF04B070473D
:1026100084B003900B4601928DF80B304FF4305389
:10262000C4F20103019A9A604FF43053C4F20103DB
:102630009DF80B2042F48062DA6000BF4FF4305303
:10264000C4F201035B6B03F08003002BF6D04FF460
:102650003053C4F201034FF080029A6304B0704714
:1026600000B587B00390019200930B468DF80B30B4
:102670004FF43053C4F20103019A9A604FF430537F
:10268000C4F201039DF80B2042F04002D2B242F4A2
:102690008062DA6000BF4FF43053C4F201035B6B19
:1026A0000593059B03F04503002BF4D04FF4305302
:1026B000C4F20103059A9A63059B03F00403002BFF
:1026C00006D003980599FFF7BBFD4FF0010308E022
:1026D0004FF43053C4F201035A69009B1A604FF063
:1026E0000003184607B000BDAFF30080AFF30080D1
:1026F00000B587B00390019200930B468DF80B3024
:102700004FF43053C4F20103019A9A604FF43053EE
:10271000C4F201039DF80B2042F04002D2B242F411
:102720008062DA6000BF4FF43053C4F201035B6B88
:102730000593059B03F04503002BF4D04FF4305371
:10274000C4F20103059A9A63059B03F00503002B6D
:1027500006D003980599FFF773FD4FF0010308E0D9
:102760004FF43053C4F201035A69009B1A604FF0D2
:102770000003184607B000BDAFF30080AFF3008040
:1027800000B587B00390019200930B468DF80B3093
:102790004FF43053C4F20103019A9A604FF430535E
:1027A000C4F201039DF80B2062F03F02D2B242F462
:1027B0008062DA6000BF4FF43053C4F201035B6BF8
:1027C0000593059B03F04503002BF4D04FF43053E1
:1027D000C4F20103059A9A63059B03F03F03002BA3
:1027E00006D003980599FFF72BFD4FF0010329E070
:1027F0004FF43053C4F201031A6A009B1A60009B25
:1028000003F1040300934FF43053C4F20103DA6977
:10281000009B1A60009B03F1040300934FF43053B4
:10282000C4F201039A69009B1A60009B03F1040340
:1028300000934FF43053C4F201035A69009B1A60AD
:102840004FF00003184607B000BD00BFAFF3008093
:1028500000B587B003900291019200934FF430537A
:10286000C4F201034DF2C042C0F201025A62039861
:10287000FEF73EFB0346002B02D04FF001035CE065
:10288000039B5B6C1B68019ADA60039B5B6C1B68A3
:10289000009A4FEA42224FEA92025A60039B5B6C15
:1028A0001B68039A126C1A60039B5B6C1B68039A8B
:1028B000526C1268126842F001021A604FF43053F1
:1028C000C4F2010340F2FF72C0F2C0029A634FF4F7
:1028D0003053C4F2010340F22A32DA634FF430532A
:1028E000C4F20103009A4FEA42229A6205AB0398B0
:1028F0000299009AFFF79CFB0346002B12D14FF47C
:102900003053C4F201034FF09B02DA6205AB039827
:1029100000991A46FFF71CFC0346002B04D14FF028
:1029200000030AE000BF00E000BF05AB0398009978
:102930001A46FFF7D5FC4FF00103184607B000BD5B
:1029400000B587B003900291019200934FF4305389
:10295000C4F2010348F68052C0F25B025A62039847
:10296000FEF7C6FA0346002B02D04FF001035EE0EB
:10297000039B5B6C1B68019ADA60039B5B6C1B68B2
:10298000009A4FEA42224FEA92025A60039B5B6C24
:102990001B68039A126C42F040021A60039B5B6C46
:1029A0001B68039A526C1268126842F001021A60A6
:1029B0004FF43053C4F2010340F2FF72C0F2C00280
:1029C0009A634FF43053C4F2010340F21A32DA63CF
:1029D0004FF43053C4F20103009A4FEA42229A6244
:1029E00005AB03980299009AFFF76AFB0346002B98
:1029F00012D14FF43053C4F201034FF09902DA625E
:102A000005AB039800991A46FFF7A2FB0346002B7B
:102A100004D14FF000030AE000BF00E000BF05ABA7
:102A2000039800991A46FFF75BFC4FF00103184624
:102A300007B000BDAFF30080AFF30080AFF30080BC
:102A400000B587B00390029101920093019B03F0BF
:102A50000303002B34D04FF00003059329E00398C3
:102A6000029940F60862C2F200024FF00103FFF73C
:102A7000EFFE0346002B02D04FF0010327E0019A3E
:102A800040F60863C2F2000311461A464FF4007381
:102A9000084611461A4603F0DBFC019B03F5007360
:102AA0000193029B03F101030293059B03F10103D0
:102AB0000593059A009B9A42D1D34FF0000306E09C
:102AC00003980299019A009BFFF7C2FE034618463D
:102AD00007B000BDAFF30080AFF30080AFF300801C
:102AE00000B587B00390029101920093019B03F01F
:102AF0000303002B33D04FF00003059328E040F68A
:102B00000863C2F20003019A19464FF400730846A5
:102B100011461A4603F09CFC019B03F500730193D8
:102B20000398029940F60862C2F200024FF00103D6
:102B3000FFF706FF0346002B02D04FF0010315E01C
:102B4000029B03F101030293059B03F1010305932B
:102B5000059A009B9A42D2D34FF0000306E00398F7
:102B60000299019A009BFFF7EBFE0346184607B057
:102B700000BD00BFAFF30080AFF30080AFF3008073
:102B800082B001904FF00003184602B0704700BFBA
:102B900082B001900091009B5A68019B5A60009B93
:102BA0009A68019B9A60009BDA68019BDA60009B3F
:102BB0001A69019B5A61009B5A69019B1A62009B2A
:102BC0009A69019B5A62009B1A68019B1A6002B0C5
:102BD000704700BFAFF30080AFF30080AFF3008019
:102BE00000B583B001904FF46053C4F202034FF478
:102BF0006052C4F20202126B6FEA52226FEA422262
:102C00001A634FF46053C4F202034FF46052C4F2EB
:102C10000202126D6FEA52226FEA42221A65019B8C
:102C20004FF00000C4F202001946FFF7B1FF019B0C
:102C300003F11C034FF48060C4F202001946FFF751
:102C4000A7FF019B03F138034FF40060C4F20200B8
:102C50001946FFF79DFF019B03F154034FF44060B9
:102C6000C4F202001946FFF793FF019B03F17003C2
:102C70004FF48050C4F202001946FFF789FF019B10
:102C800003F18C034FF4A050C4F202001946FFF781
:102C90007FFF019B03F1A8034FF4C050C4F2020070
:102CA0001946FFF775FF019B03F1C4034FF4E05091
:102CB000C4F202001946FFF76BFF019B03F1E0032A
:102CC0004FF40050C4F202001946FFF761FF03B051
:102CD00000BD00BFAFF30080AFF30080AFF3008012
:102CE00008B541F23403C2F200034FF6FF721A80B6
:102CF00041F20800C2F20000FEF7DAFB41F20803DD
:102D0000C2F200034FF44052C4F201029A6141F250
:102D10000803C2F200030D4ADA6141F20803C2F26D
:102D200000030B4A1A6241F20803C2F200034FF09B
:102D30001602C0F201625A6241F20803C2F20003B5
:102D40004FF04602C0F201629A6208BDE06A0008D4
:102D50001C6B0008AFF30080AFF30080AFF300807E
:102D600008B5FFF7A5F808BDAFF30080AFF300800A
:102D700082B001904FF44063C4F202031B694FEA32
:102D8000131303F00103002B14BF00230123DBB254
:102D9000184602B0704700BFAFF30080AFF3008069
:102DA00082B001904FF44063C4F202031B694FEA02
:102DB000531303F00103002B0CBF00230123DBB2EC
:102DC000184602B0704700BFAFF30080AFF3008039
:102DD000704700BFAFF30080AFF30080AFF3008017
:102DE00010B5ADF5467D01AB18606B46196001ABBF
:102DF0001B68002B03D06B461B68002B02D16FF0C1
:102E0000030312E104AA6B4610464FF440711A689E
:102E100002F0D6FE0346002B0DD16B461B689A6864
:102E20006B461B68DB689A4202D16FF00103FCE03D
:102E30004FF0FF33F9E04FF00003C59316E004AA0A
:102E4000C59BD3181B780D2B05D004AAC59BD3189E
:102E50001B780A2B06D104AAC59BD3184FF0000299
:102E60001A700CE0C59B03F10103C59304AB18462F
:102E700003F096FB03461A46C59B9A42DFDC04AB7F
:102E80001B78002B02D16FF00403CEE004AB184690
:102E900003F086FB0346082B02D86FF00203C4E060
:102EA00004AB1B783A2B02D06FF00203BDE002AAFC
:102EB00004AB03F10103104619464FF0020203F080
:102EC0009FFB02AB4FF000029A7002AB18464FF026
:102ED00000014FF0100203F0BBFCC49002AA04AB47
:102EE00003F10303104619464FF0040203F088FB78
:102EF00002AB4FF000021A7102AB18464FF000010E
:102F00004FF0100203F0A4FC03469AB201AB1B6819
:102F10001A8002AA04AB03F10703104619464FF0CA
:102F2000020203F06DFB02AB4FF000029A7002AB9D
:102F300018464FF000014FF0100203F089FC0246E2
:102F400001AB1B68C3F8082104AB184603F028FB4B
:102F50000246C49B4FEA430303F10B039A4202D299
:102F60006FF0020361E04FF00003C59324E0C59BBE
:102F70004FEA430303F1090304AAD31802AA104637
:102F800019464FF0020203F03BFB02AB4FF0000288
:102F90009A7002AB18464FF000014FF0100203F098
:102FA00057FC0346DAB201AB1968C59BCB189A707F
:102FB000C59B03F10103C593C59AC49B9A42D6DB16
:102FC00001AB1B68C49AC3F80421C49B4FEA4303B6
:102FD00003F1090304AAD31802AA104619464FF0B8
:102FE000020203F00DFB02AB4FF000029A7002AB3D
:102FF00018464FF000014FF0100203F029FC034681
:10300000DAB201AB1B6883F80C2101AB1B6893F8A3
:103010000C4101AB186800F013F803469C4202D043
:103020006FF0020301E04FF0000318460DF5467DF6
:1030300010BD00BFAFF30080AFF30080AFF300809E
:1030400084B00190019BD3F804318DF80F30019BBF
:10305000D3F80831DAB29DF80F30D3188DF80F305D
:10306000019B1B88DAB29DF80F30D3188DF80F3012
:10307000019B1B884FEA13239BB2DAB29DF80F30F5
:10308000D3188DF80F304FF0000302930CE0019A33
:10309000029BD3189A789DF80F30D3188DF80F3013
:1030A000029B03F101030293019BD3F80421029BCD
:1030B0009A42ECDC9DF80F30C3F100038DF80F301D
:1030C0009DF80F30184604B0704700BFAFF3008082
:1030D0004FF47053C4F202031B69002B11DA4FF452
:1030E0007053C4F2020340F22312C4F267525A60D2
:1030F0004FF47053C4F2020348F6AB12CCF6EF5211
:103100005A607047AFF30080AFF30080AFF30080E8
:103110004FF47053C4F202034FF47052C4F202022F
:10312000126942F000421A61704700BFAFF300809D
:1031300000B585B001900B468DF803304FF00003C9
:1031400003934FF008038DF80B30019B002B20D028
:10315000019B082B1DD0019B102B1AD0019B182B13
:1031600017D0019B202B14D0019B282B11D0019B41
:10317000302B0ED0019B382B0BD0019B402B08D05D
:10318000019B482B05D0019B502B02D0019B582B53
:1031900002D14FF0010301E04FF00003184603F0A5
:1031A00047F99DF80330002B0BD09DF80330012B1D
:1031B00007D09DF80330022B03D09DF80330032B7A
:1031C00002D14FF0010301E04FF00003184603F075
:1031D0002FF99DF80330002B03D14FF00003039328
:1031E00012E09DF80330012B03D14FF48073039359
:1031F0000AE09DF80330022B03D14FF400730393D0
:1032000002E04FF44073039300F04AF903468DF84F
:103210000B309DF80B30082B5AD14FF47053C4F289
:1032200002034FF47052C4F20202126922F4407297
:103230001A614FF47053C4F202034FF47052C4F297
:1032400002021169039A0A431A614FF47053C4F2DF
:1032500002034FF47052C4F20202126922F0F80223
:103260001A614FF47053C4F202034FF47052C4F267
:1032700002021169019A0A4342F002021A614FF4F4
:103280007053C4F202034FF47052C4F20202126986
:1032900042F480321A6100F003F903468DF80B30D6
:1032A0004FF47053C4F202034FF47052C4F202029E
:1032B000126922F002021A614FF47053C4F2020341
:1032C0004FF47052C4F20202126922F0F8021A613D
:1032D0009DF80B30184605B000BD00BFAFF300806D
:1032E00000B585B001900B468DF803304FF0080310
:1032F0008DF80F30019A6FF078439A4206D9019AFF
:103300004FF6FE73C0F60F039A420DD9019A47F2A9
:10331000FF73C1F6FF739A4209D9019A47F60E234B
:10332000C1F6FF739A4202D84FF0010301E04FF05B
:103330000003184603F07CF800F0B2F803468DF85D
:103340000F309DF80F30082B36D14FF47053C4F274
:1033500002034FF47052C4F20202126922F4407266
:103360001A614FF47053C4F202034FF47052C4F266
:10337000020212691A614FF47053C4F202034FF44F
:103380007052C4F20202126942F001021A61019BFA
:103390009DF803201A7000F083F803468DF80F3073
:1033A0004FF47053C4F202034FF47052C4F202029D
:1033B000126922F001021A619DF80F30184605B01B
:1033C00000BD00BFAFF30080AFF30080AFF300801B
:1033D00000B583B00190019B23F0F303002B05D1CE
:1033E000019B002B02D04FF0010301E04FF00003DE
:1033F000184603F01DF84FF47053C4F20203019A0B
:10340000DA6003B000BD00BFAFF30080AFF300800F
:1034100082B04FF008038DF807304FF47053C4F2B8
:103420000203DB6803F48033002B04D04FF0010368
:103430008DF807302DE04FF47053C4F20203DB68BF
:1034400003F01003002B04D04FF005038DF8073074
:103450001FE04FF47053C4F20203DB6803F0EF0384
:10346000002B04D04FF006038DF8073011E04FF425
:103470007053C4F20203DB6803F00203002B04D094
:103480004FF007038DF8073003E04FF008038DF885
:1034900007309DF80730184602B07047AFF3008040
:1034A00000B583B04FF008038DF80730FFF7B0FF89
:1034B00003468DF8073004E0FFF7AAFF03468DF8B6
:1034C00007309DF80730DBB2012BF5D09DF80730AF
:1034D000DBB2184603B000BDAFF30080AFF300804D
:1034E00084B001904FF000030393019A43F6FF73F9
:1034F000C0F600039A4208D8019A6FF078439A42C6
:1035000003D94FF000030393B6E0019A47F6FF7327
:10351000C0F600039A420AD8019A43F6FF73C0F638
:1035200000039A4203D94FF008030393A4E0019AE1
:103530004BF6FF73C0F600039A420AD8019A47F689
:10354000FF73C0F600039A4203D94FF010030393B0
:1035500092E0019A4FF6FF73C0F600039A420AD830
:10356000019A4BF6FF73C0F600039A4203D94FF05D
:103570001803039380E0019A4FF6FF73C0F601032E
:103580009A420AD8019A4FF6FF73C0F600039A4296
:1035900003D94FF0200303936EE0019A4FF6FF73B7
:1035A000C0F603039A420AD8019A4FF6FF73C0F699
:1035B00001039A4203D94FF0280303935CE0019A78
:1035C0004FF6FF73C0F605039A420AD8019A4FF6E8
:1035D000FF73C0F603039A4203D94FF030030393FD
:1035E0004AE0019A4FF6FF73C0F607039A420AD8E1
:1035F000019A4FF6FF73C0F605039A4203D94FF0C4
:103600003803039338E0019A4FF6FF73C0F60903BD
:103610009A420AD8019A4FF6FF73C0F607039A42FE
:1036200003D94FF04003039326E0019A4FF6FF734E
:10363000C0F60B039A420AD8019A4FF6FF73C0F600
:1036400009039A4203D94FF04803039314E0019A07
:103650004FF6FF73C0F60D039A420AD8019A4FF64F
:10366000FF73C0F60B039A4203D94FF05003039344
:1036700002E04FF058030393039B184604B07047D1
:1036800084B001904FF000030393019A43F6FF7357
:10369000C0F600039A4208D8019A6FF078439A4224
:1036A00003D94FF000030393B6E0019A47F6FF7386
:1036B000C0F600039A420AD8019A43F6FF73C0F697
:1036C00000039A4203D94FF001030393A4E0019A47
:1036D0004BF6FF73C0F600039A420AD8019A47F6E8
:1036E000FF73C0F600039A4203D94FF0020303931D
:1036F00092E0019A4FF6FF73C0F600039A420AD88F
:10370000019A4BF6FF73C0F600039A4203D94FF0BB
:103710000303039380E0019A4FF6FF73C0F60103A1
:103720009A420AD8019A4FF6FF73C0F600039A42F4
:1037300003D94FF0040303936EE0019A4FF6FF7331
:10374000C0F603039A420AD8019A4FF6FF73C0F6F7
:1037500001039A4203D94FF0050303935CE0019AF9
:103760004FF6FF73C0F605039A420AD8019A4FF646
:10377000FF73C0F603039A4203D94FF00603039385
:103780004AE0019A4FF6FF73C0F607039A420AD83F
:10379000019A4FF6FF73C0F605039A4203D94FF022
:1037A0000703039338E0019A4FF6FF73C0F609034D
:1037B0009A420AD8019A4FF6FF73C0F607039A425D
:1037C00003D94FF00803039326E0019A4FF6FF73E5
:1037D000C0F60B039A420AD8019A4FF6FF73C0F65F
:1037E00009039A4203D94FF00903039314E0019AA5
:1037F0004FF6FF73C0F60D039A420AD8019A4FF6AE
:10380000FF73C0F60B039A4203D94FF00A030393E8
:1038100002E04FF00B030393039B184604B070477C
:1038200000B585B001904FF00000C0F60200FFF730
:1038300027FF02904FF00003039318E0039B4FEA29
:103840004303019AD3184FF000025A70039B4FEACA
:103850004303019AD3180399029A91422CBF002284
:103860000122D2B21A70039B03F101030393039B5D
:103870000B2BE3D94FF0F300FFF7AAFD05B000BD15
:1038800000B589B003900291019200934FF00003BC
:1038900007930298FFF7F4FE06900298FFF720FEC8
:1038A0000590069B0B2B67D8069B4FEA4303039AB0
:1038B000D3181B7883F00103DBB2002B58D0FFF73D
:1038C00007FC4FF0F300FFF783FD069B4FEA43032D
:1038D000039AD3185B7883F00103DBB2002B17D077
:1038E00005984FF00201FFF723FC0346082B0AD18D
:1038F000FFF7D6FD069B4FEA4303039AD3184FF018
:1039000001025A7004E06FF002030793FFF700FC16
:10391000069B4FEA4303039AD3185B78002B2ED003
:1039200015E0029A029B03F101030293019B1B78AD
:10393000019901F10101019110461946FFF7D0FCF0
:103940000346082B03D06FF0030307930BE0009BA3
:10395000002BD4BF00230123DBB2009A02F1FF3217
:103960000092002BDDD1FFF79BFDFFF7D1FB06E0B6
:103970006FF00103079302E04FF0FF330793079BBB
:10398000184609B000BD00BFAFF30080AFF3008060
:1039900086B0039002910192039B0593029B0493CE
:1039A0000BE0049B1A78059B1A70059B03F1010339
:1039B0000593049B03F101030493019B002B0CBFAF
:1039C00000230123DBB2019A02F1FF320192002BA6
:1039D000E7D106B0704700BFAFF30080AFF30080BF
:1039E00086B0039002910192039B059307E0029B2E
:1039F000DAB2059B1A70059B03F101030593019B45
:103A0000002B0CBF00230123DBB2019A02F1FF322D
:103A10000192002BEBD106B0704700BFAFF30080DE
:103A200088B0039002910192039B0793029B069337
:103A30004FF00003059300BF019B002B0CBF002338
:103A40000123DBB2019A02F1FF320192002B16D062
:103A5000079B1B781A46069B1B78D31A0593059B78
:103A6000002B14BF00230123DBB2079A02F10102ED
:103A70000792069A02F101020692002BDCD1059B07
:103A8000184608B0704700BFAFF30080AFF3008066
:103A900082B00190009103E0019B03F101030193C7
:103AA000019B1B78002B05D0019B1B781A46009BBD
:103AB0009A42F1D1019B1B78184602B0704700BFB3
:103AC00000B585B00190019B1B79002B41D0019B73
:103AD0001B6B0393019B5A78019B03F1340310463F
:103AE0001946039A4FF0010302F052F90346002BE6
:103AF00002D04FF001032EE0019B4FF000021A713B
:103B0000019B5A6A039B9A4223D8019B5A6A019BE4
:103B1000DB69D218039B9A421BD9019BDB78029385
:103B200014E0019BDB69039AD3180393019B5A7835
:103B3000019B03F1340310461946039A4FF0010329
:103B400002F026F9029B03F1FF330293029B012B43
:103B5000E7D84FF00003184605B000BDAFF3008072
:103B600000B583B001900091019B1A6B009B9A42B3
:103B70001DD00198FFF7A4FF0346002B02D04FF0A1
:103B8000010316E0019B5A78019B03F134031046B0
:103B90001946009A4FF0010302F0CAF80346002BC1
:103BA00002D04FF0010304E0019B009A1A634FF02A
:103BB0000003184603B000BDAFF30080AFF30080F0
:103BC00000B585B001900198FFF77AFF03468DF8A4
:103BD0000F309DF80F30002B40F0AC80019B1B781C
:103BE000032B40F09780019B5B79002B00F09280C3
:103BF000019B4FF000021A63019B03F13403184646
:103C00004FF000014FF40072FFF7EAFE019B4FF006
:103C1000550283F83222019B4FF0AA0283F8332227
:103C2000019B4FF0520283F83420019B4FF0520267
:103C300083F83520019B4FF0610283F83620019B09
:103C40004FF0410283F83720019B4FF0720283F856
:103C50001822019B4FF0720283F81922019B4FF04A
:103C6000410283F81A22019B4FF0610283F81B2264
:103C7000019B1B69DAB2019B83F81C22019B1B6923
:103C80009BB24FEA13239BB2DAB2019B83F81D2249
:103C9000019B1B694FEA1343DAB2019B83F81E2292
:103CA000019B1B694FEA1363DAB2019B83F81F2261
:103CB000019BDB68DAB2019B83F82022019BDB6861
:103CC0009BB24FEA13239BB2DAB2019B83F8212205
:103CD000019BDB684FEA1343DAB2019B83F822228F
:103CE000019BDB684FEA1363DAB2019B83F823225E
:103CF000019B5978019B03F13402019B5B690846E3
:103D000011461A464FF0010302F042F8019B4FF0B2
:103D100000025A71019B5B7818464FF000014FF08A
:103D2000000202F065F80346002B03D04FF00103B8
:103D30008DF80F309DF80F30184605B000BD00BF5C
:103D400082B001900091009BA3F102030093019BBC
:103D50009B69A3F10202009B9A4202D84FF0000334
:103D600007E0019B9B78009A02FB03F2019BDB6A50
:103D7000D318184602B07047AFF30080AFF300804D
:103D800000B587B001900091009B012B04D9019BE5
:103D90009A69009B9A4202D84FF00103BCE0019B54
:103DA0001B78022B52D0032B78D0012B40F0B2802D
:103DB000009B0593059B4FEA5303059AD31805937F
:103DC000019B5A6A059B4FEA5323D3180198194661
:103DD000FFF7C6FE0346002B40F09580059B4FEA97
:103DE000C3534FEAD353019AD31893F83430049352
:103DF000059B03F101030593019B5A6A059B4FEA5A
:103E00005323D31801981946FFF7AAFE0346002B47
:103E10007BD1059B4FEAC3534FEAD353019AD31882
:103E200093F834304FEA0323049A13430493009B1E
:103E300003F00103002B03D0049B4FEA131304E0AB
:103E4000049B4FEA03534FEA135365E0019B5A6A00
:103E5000009B4FEA1323D31801981946FFF780FE01
:103E60000346002B53D1009B4FEA43034FEAC35351
:103E70004FEAD35303F13003019AD31803F104033B
:103E80000393039B03F101031B784FEA03239AB2C8
:103E9000039B1B7813439BB29BB23DE0019B5A6A84
:103EA000009B4FEAD313D31801981946FFF758FE29
:103EB0000346002B2DD1009B4FEA83034FEAC353E7
:103EC0004FEAD35303F13003019AD31803F10403EB
:103ED0000393039B03F103031B784FEA0362039BE5
:103EE00003F102031B784FEA03431A43039B03F1D8
:103EF00001031B784FEA03231A43039B1B781343E8
:103F000023F0704308E000BF04E000BF02E000BF00
:103F100000E000BF4FF0FF33184607B000BD00BF00
:103F200000B589B0039002910192029B012B04D944
:103F3000039B9A69029B9A4204D84FF002038DF8C2
:103F40001F3023E1039B1B78022B00F08780032B9B
:103F500000F0B280012B40F00981029B0693069B82
:103F60004FEA5303069AD3180693039B5A6A069B9B
:103F70004FEA5323D31803981946FFF7F1FD034680
:103F80008DF81F309DF81F30002B40F0F480069B09
:103F90004FEAC3534FEAD35303F13003039AD318C4
:103FA00003F104030593029B03F00103002B0ED0E1
:103FB000059B1B78DBB203F00F03DAB2019BDBB287
:103FC0004FEA0313DBB21343DBB2DBB201E0019B28
:103FD000DBB2059A1370069B03F101030693039B62
:103FE0004FF001021A71039B5A6A069B4FEA532352
:103FF000D31803981946FFF7B3FD03468DF81F3019
:104000009DF81F30002B40F0B880069B4FEAC35349
:104010004FEAD35303F13003039AD31803F1040397
:104020000593029B03F00103002B04D0019B4FEA90
:104030001313DBB20FE0059B1B78DBB223F00F03F9
:10404000DAB2019B4FEA1323DBB203F00F03DBB2BA
:104050001343DBB2DBB2059A137093E0039B5A6AF9
:10406000029B4FEA1323D31803981946FFF778FDF4
:1040700003468DF81F309DF81F30002B7FD1029B27
:104080004FEA43034FEAC3534FEAD35303F13003DC
:10409000039AD31803F104030593019BDAB2059B3D
:1040A0001A70059B03F10103019A92B24FEA1222A2
:1040B00092B2D2B21A7065E0039B5A6A029B4FEA31
:1040C000D313D31803981946FFF74AFD03468DF81A
:1040D0001F309DF81F30002B53D1029B4FEA830302
:1040E0004FEAC3534FEAD35303F13003039AD31873
:1040F00003F104030593059B03F103031B784FEAC7
:104100000362059B03F102031B784FEA03431A4342
:10411000059B03F101031B784FEA03231A43059B18
:104120001B78134303F07043019A13430193019BDF
:10413000DAB2059B1A70059B03F10103019A92B252
:104140004FEA122292B2D2B21A70059B03F1020317
:10415000019A4FEA1242D2B21A70059B03F103038F
:10416000019A4FEA1262D2B21A700BE04FF00203CA
:104170008DF81F3006E000BF04E000BF02E000BF82
:1041800000E000BF039B4FF001021A719DF81F3041
:10419000184609B000BD00BFAFF30080AFF3008048
:1041A00000B585B001900091009B012B04D9019BC3
:1041B0009A69009B9A4204D84FF002038DF80F30A1
:1041C00044E04FF000038DF80F3036E0019800997D
:1041D000FFF7D6FD0290029B002B34D0029B012BEF
:1041E00004D14FF002038DF80F302FE0029BB3F1A2
:1041F000FF3F04D14FF001038DF80F3026E0019806
:1042000000994FF00002FFF78BFE03468DF80F3048
:104210009DF80F30002B18D1019B1B69B3F1FF3FB4
:1042200009D0019B1B6903F10102019B1A61019BEB
:104230004FF001025A71029B0093019B9A69009B07
:104240009A42C3D802E000BF00E000BF9DF80F30E3
:10425000184605B000BD00BFAFF30080AFF300808B
:1042600000B587B001900091009B002B0ED1019BFF
:10427000DB680493049B002B04D0019B9A69049B88
:104280009A4217D84FF00103049313E00198009964
:10429000FFF776FD0290029B012B02D84FF001033D
:1042A00072E0019B9A69029B9A4201D9029B6BE0E2
:1042B000009B0493049B059300E000BF059B03F162
:1042C00001030593019B9A69059B9A4209D84FF017
:1042D00002030593059A049B9A4202D94FF000030A
:1042E00052E001980599FFF74BFD0290029B002BCD
:1042F0000FD0029BB3F1FF3F02D0029B012B01D1F3
:10430000029B41E0059A049B9A42D6D14FF00003EC
:104310003AE000BF019805996FF07042FFF700FE88
:1043200003468DF80F309DF80F30002B0AD1009B0B
:10433000002B07D001980099059AFFF7F1FD03467D
:104340008DF80F309DF80F30002B12D1019B059A8C
:10435000DA60019B1B69B3F1FF3F14D0019B1B691D
:1043600003F1FF32019B1A61019B4FF001025A7168
:1043700009E09DF80F30012B02D14FF0FF3301E02F
:104380004FF001030593059B184607B000BD00BF21
:1043900000B585B001900B46ADF80230019BBDF829
:1043A0000220DA80019B9B680393039B012B05D0BD
:1043B000019B1B689A69039B9A4202D84FF0020343
:1043C00079E0039B002B08D1019B1B681B78032B12
:1043D00003D1019B1B689B6A0393039B002B18D19D
:1043E000019B039ADA60019B1B681B89BDF80220C0
:1043F0009A4202D34FF002035DE0019B1B689A6A68
:10440000BDF802304FEA13139BB2D218019B1A6118
:1044100040E0019B1B689B784FEA0313ADF80A301C
:1044200020E0019B1B6818460399FFF7A9FC039045
:10443000039BB3F1FF3F02D14FF001033BE0039B2D
:10444000012B05D9019B1B689A69039B9A4202D8EC
:104450004FF002032FE0BDF80220BDF80A30D31A56
:10446000ADF80230BDF80220BDF80A309A42D8D229
:10447000019B039ADA60019B1B6818460399FFF7BA
:104480005FFC0246BDF802304FEA13139BB2D2180C
:10449000019B1A61019B1A68BDF8023003F00F03FB
:1044A0004FEA431303F13003D31803F10402019BD5
:1044B0005A614FF00003184605B000BDAFF300800D
:1044C00010B584B001900091019BDB8803F10103DA
:1044D000ADF80830BDF80830002B03D0019B1B69F4
:1044E000002B02D14FF00403DBE0BDF8083003F0ED
:1044F0000F039BB2002B40F0BF80019B1B6903F1AF
:104500000102019B1A61019BDB68002B0AD1019B10
:104510001B681B89BDF808209A42C0F0AD804FF09F
:104520000403BEE0BDF808304FEA13139BB21A46ED
:10453000019B1B689B7803F1FF331340002B40F075
:104540009B80019B1A68019BDB6810461946FFF7A8
:1045500017FC0390039B012B02D84FF00203A0E04D
:10456000039BB3F1FF3F02D14FF0010399E0019BA0
:104570001B689A69039B9A4272D8009B002B02D158
:104580004FF004038DE0019B1A68019BDB68104625
:104590001946FFF765FE0390039B002B02D14FF0F5
:1045A00007037EE0039B012B02D14FF0020378E06A
:1045B000039BB3F1FF3F02D14FF0010371E0019B78
:1045C0001B681846FFF77CFA0346002B02D04FF019
:1045D000010366E0019B1B6803F1340318464FF0AA
:1045E00000014FF40072FFF7FBF9019B1C68019B6F
:1045F0001B6818460399FFF7A3FB034623634FF09C
:1046000000038DF80B301BE0019B1B684FF001028B
:104610001A71019B1B681846FFF752FA0346002BDC
:1046200002D04FF001033CE0019B1B681A6B02F1C2
:1046300001021A639DF80B3003F101038DF80B3072
:10464000019B1B689B789DF80B209A42DCD3019B51
:104650001B68019A1268116B9DF80B208A1A1A6365
:10466000019B039ADA60019B1B6818460399FFF7C8
:1046700067FB0246019B1A61019BBDF80820DA80A6
:10468000019B1A68BDF8083003F00F034FEA43138B
:1046900003F13003D31803F10402019B5A614FF078
:1046A0000003184604B010BDAFF30080AFF30080E4
:1046B00000B585B00190009101984FF00001FFF71F
:1046C00067FE03468DF80F309DF80F30002B35D173
:1046D0004FF000030293019B1A68019B1B6910466F
:1046E0001946FFF73DFA03468DF80F309DF80F305D
:1046F000002B22D1019B5B691B78E52B04D0019B29
:104700005B691B78002B08D1029B03F10103029324
:10471000029A009B9A4203D110E04FF000030293EB
:1047200001984FF00101FFF7CBFE03468DF80F30E3
:104730009DF80F30002BCED000E000BF9DF80F3069
:10474000184605B000BD00BFAFF30080AFF3008096
:1047500084B001900091009B03F11B031B784FEA8A
:1047600003239AB2009B03F11A031B7813439BB2F5
:104770009BB20393019B1B78032B12D1009B03F187
:1047800015031B784FEA03239AB2009B03F114032D
:104790001B7813439BB29BB24FEA0343039A134324
:1047A0000393039B184604B0704700BFAFF300802B
:1047B00082B001900091019B03F11A03009AD2B2DA
:1047C0001A70019B03F11B03009A92B24FEA122266
:1047D00092B2D2B21A70019B03F11403009A4FEA0D
:1047E0001242D2B21A70019B03F11503009A4FEAEC
:1047F000124292B24FEA122292B2D2B21A7002B0B0
:10480000704700BFAFF30080AFF30080AFF30080CC
:1048100000B587B0019001984FF00001FFF7B8FD97
:1048200003468DF817309DF81730002B02D09DF805
:10483000173043E0019B1A68019B1B69104619461B
:10484000FFF78EF903468DF817309DF81730002BCF
:104850002FD1019B5B690493049B1B788DF80F306B
:104860009DF80F30002B04D14FF004038DF8173062
:1048700022E0049B03F10B031B7803F00803002BD9
:104880000AD1019B9B69049819464FF00B02FFF770
:10489000C7F80346002B0ED001984FF00001FFF738
:1048A0000FFE03468DF817309DF81730002BC1D04E
:1048B00002E000BF00E000BF9DF81730184607B0C7
:1048C00000BD00BFAFF30080AFF30080AFF3008006
:1048D00000B585B0019001984FF00101FFF7E8FEA7
:1048E00003468DF80F309DF80F30002B26D1019B29
:1048F0001A68019B1B6910461946FFF731F90346F8
:104900008DF80F309DF80F30002B17D1019B5B699C
:1049100018464FF000014FF02002FFF761F8019BAD
:104920005A69019B9B69104619464FF00B02FFF72D
:104930002FF8019B1B684FF001021A719DF80F3090
:10494000184605B000BD00BFAFF30080AFF3008094
:1049500000B589B001900091009B1B68039303E0B0
:10496000039B03F101030393039B1B782F2BF7D0C9
:10497000039B1B785C2BF3D0019B9B6902930298ED
:104980004FF020014FF00B02FFF72AF84FF0000321
:104990008DF81F304FF000030493049B05934FF0F4
:1049A00008030693039A059BD3181B788DF81E30D5
:1049B000059B03F1010305939DF81E30202B7AD946
:1049C0009DF81E302F2B76D09DF81E305C2B72D0B8
:1049D0009DF81E302E2B03D0049A069B9A4217D3C3
:1049E000069B082B03D19DF81E302E2B02D04FF0D2
:1049F0000603A7E04FF0080304934FF00B03069360
:104A00009DF81F304FEA83038DF81F3000BFC9E7C0
:104A10009DF81E305BB2002B10DA9DF81F3043F07A
:104A200003038DF81F309DF81E30A3F1800246F677
:104A30004043C0F600039B5C8DF81E309DF81E308D
:104A400046F6F010C0F600001946FFF721F80346BD
:104A5000002B02D04FF0060374E09DF81E30402B6F
:104A60000AD99DF81E305A2B06D89DF81F3043F006
:104A700002038DF81F3013E09DF81E30602B0FD914
:104A80009DF81E307A2B0BD89DF81F3043F00103A0
:104A90008DF81F309DF81E30A3F120038DF81E30D5
:104AA000029A049BD3189DF81E201A70049B03F1F0
:104AB0000103049376E7039A059BD218009B1A60C2
:104AC0009DF81E30202B02D84FF0040301E04FF078
:104AD00000038DF81E30049B002B02D14FF006031B
:104AE00030E0029B1B78E52B03D1029B4FF00502BF
:104AF0001A70069B082B05D19DF81F304FEA8303DF
:104B00008DF81F309DF81F3003F00303012B05D1F2
:104B10009DF81E3043F010038DF81E309DF81F30B5
:104B200003F00C03042B05D19DF81E3043F008035D
:104B30008DF81E30029B03F10B039DF81E201A70A6
:104B40004FF00003184609B000BD00BFAFF300806E
:104B500000B585B001900091009B1B782F2B03D0EE
:104B6000009B1B785C2B03D1009B03F10103009396
:104B7000019B4FF000029A60009B1B781F2B0CD802
:104B800001984FF00001FFF703FC03468DF80F304A
:104B9000019B4FF000025A6150E06B4601981946A4
:104BA000FFF7D6FE03468DF80F309DF80F30002B2F
:104BB0003DD10198FFF72CFE03468DF80F30019B85
:104BC0009B69DB7A8DF80E309DF80F30002B0ED0EC
:104BD0009DF80F30042B2CD19DF80E3003F0040308
:104BE000002B28D14FF005038DF80F3023E09DF8FE
:104BF0000E3003F00403002B1FD1019B5B6902936D
:104C0000029B03F10B031B7803F01003002B04D16C
:104C10004FF005038DF80F3010E0019B1B6818461C
:104C20000299FFF795FD0246019B9A60B5E700BF28
:104C300004E000BF02E000BF00E000BF9DF80F30BD
:104C4000184605B000BD00BFAFF30080AFF3008091
:104C500000B583B001900091019B5A78019B03F14C
:104C6000340310461946009A4FF0010301F060F832
:104C70000346002B02D04FF0030356E0019B93F84C
:104C800033324FEA03239AB2019B93F83232134333
:104C90009BB21AB24AF65523CFF6FF739A4202D05E
:104CA0004FF0020341E0019B93F86D304FEA03623D
:104CB000019B93F86C304FEA03431A43019B93F82E
:104CC0006B304FEA03231A43019B93F86A30134376
:104CD00023F07F4244F24613C0F254039A4202D1B9
:104CE0004FF0000321E0019B93F889304FEA036203
:104CF000019B93F888304FEA03431A43019B93F8D2
:104D000087304FEA03231A43019B93F886301343FD
:104D100023F07F4244F24613C0F254039A4202D178
:104D20004FF0000301E04FF00103184603B000BD4F
:104D300000B593B00390029113468DF80730039BA2
:104D40001B680B930B9B1B78A3F130031093109BF4
:104D5000092B0DD80B9B03F101031B783A2B07D1CC
:104D60000B9B03F102030B93039B0B9A1A6002E067
:104D70004FF000031093029B4FF000021A60109B4B
:104D8000002B02D04FF00B03E2E241F23803C2F2F3
:104D90000003109A53F822300A930A9B002B02D189
:104DA0004FF00C03D4E2029B0A9A1A600A9B1B780C
:104DB000002B1DD00A9B5B78184600F081FF03464C
:104DC0008DF827309DF8273003F00103002B0FD119
:104DD0009DF80730002B08D09DF8273003F004031E
:104DE000002B02D04FF00A03B2E24FF00003AFE213
:104DF0000A9B4FF000021A70109BDAB20A9B5A709D
:104E00000A9B5B78184600F023FF03468DF8273095
:104E10009DF8273003F00103002B02D04FF003036D
:104E200096E29DF80730002B08D09DF8273003F05C
:104E30000403002B02D04FF00A0389E24FF0000375
:104E40000F930A980F99FFF703FF03468DF8473039
:104E50009DF84730012B41D14FF000038DF84630CB
:104E60009DF84630002B05D09DF8463003F1FF3306
:104E70008DF846309DF846304FEA031303F5DF7393
:104E800003F130030A9AD31803F104030893089B33
:104E900003F104031B78002B20D0089B03F10B03C4
:104EA0001B784FEA0362089B03F10A031B784FEA61
:104EB00003431A43089B03F109031B784FEA0323BA
:104EC0001A43089B03F108031B7813430F930A98B6
:104ED0000F99FFF7BDFE03468DF847309DF8473028
:104EE000032B02D14FF0010332E29DF84730002B33
:104EF00002D04FF00D032BE20A9B93F840304FEAAB
:104F000003239AB20A9B93F83F3013439BB21BB220
:104F1000B3F5007F02D04FF00D0319E20A9B93F81E
:104F20004B304FEA03239AB20A9B93F84A3013435B
:104F30009BB29BB20E930E9B002B15D10A9B93F84C
:104F40005B304FEA03620A9B93F85A304FEA0343FF
:104F50001A430A9B93F859304FEA03231A430A9BDA
:104F600093F8583013430E930A9B0E9ADA610A9B0A
:104F700093F844308DF81F300A9B9DF81F20DA709B
:104F80009DF81F30012B06D09DF81F30022B02D058
:104F90004FF00D03DCE19DF81F200E9B02FB03F395
:104FA0000E930A9B93F841308DF81F300A9B9DF8B1
:104FB0001F209A709DF81F30002B08D09DF81F20ED
:104FC0009DF81F3003F1FF331340002B02D04FF048
:104FD0000D03BDE10A9B93F846304FEA03239AB2D2
:104FE0000A9B93F8453013439BB29AB20A9B1A81ED
:104FF0000A9B1B8903F00F039BB2002B02D04FF0DA
:105000000D03A5E10A9B93F848304FEA03239AB2B7
:105010000A9B93F8473013439BB29BB20D930D9BB1
:10502000002B15D10A9B93F857304FEA03620A9B75
:1050300093F856304FEA03431A430A9B93F85530CE
:105040004FEA03231A430A9B93F8543013430D93FA
:105050000A9B93F843304FEA03239AB20A9B93F8D2
:10506000423013439BB2ADF81C30BDF81C30002B0E
:1050700002D14FF00D036BE1BDF81C200E9BD2183E
:105080000A9B1B894FEA13139BB2D31806930D9A00
:10509000069B9A4202D24FF00D0359E10D9A069BEE
:1050A000D21A0A9B9B78B2FBF3F30593059B002B66
:1050B00002D14FF00D034BE14FF001038DF8473063
:1050C000059A40F6F5739A4203D94FF002038DF822
:1050D0004730059A4FF6F5739A4203D94FF0030310
:1050E0008DF84730059B03F102020A9B9A610A9BE7
:1050F0000F9A1A62BDF81C200F9BD2180A9B5A62A5
:105100000F9A069BD2180A9BDA629DF84730032B50
:1051100023D10A9B1B89002B02D04FF00D0317E10E
:105120000A9B93F863304FEA03620A9B93F862305C
:105130004FEA03431A430A9B93F861304FEA032373
:105140001A430A9B93F860301A430A9B9A620A9B9F
:105150009B694FEA83030C9323E00A9B1B89002B76
:1051600002D14FF00D03F3E00A9B5A6A0E9BD2184E
:105170000A9B9A629DF84730022B04D10A9B9B69D7
:105180004FEA43030CE00A9B9A6913464FEA430334
:105190009B184FEA53020A9B9B6903F00103D31843
:1051A0000C930A9BDA690C9B03F2FF134FEA53231B
:1051B0009A4202D24FF00D03CAE00A9B4FF0FF3231
:1051C0001A610A9B4FF00002DA609DF84730032B0A
:1051D00040F09C800A9B4FF000025A710A9B93F8A2
:1051E00065304FEA03239AB20A9B93F86430134365
:1051F0009BB29BB21A460F9BD2180A9B5A610A9B1C
:1052000059780A9B03F134020A9B5B6908461146F0
:105210001A464FF0010300F08BFD0346002B75D1B9
:105220000A9B93F833324FEA03239AB20A9B93F80E
:10523000323213439BB21AB24AF65523CFF6FF73AC
:105240009A4263D10A9B93F837304FEA03620A9B74
:1052500093F836304FEA03431A430A9B93F83530EC
:105260004FEA03231A430A9B93F834301A4345F25A
:105270005223C4F261139A4248D10A9B93F81B321D
:105280004FEA03620A9B93F81A324FEA03431A4328
:105290000A9B93F819324FEA03231A430A9B93F8A7
:1052A00018321A4347F27223C6F241139A422DD1A3
:1052B0000A9B93F823324FEA03620A9B93F8223247
:1052C0004FEA03431A430A9B93F821324FEA032320
:1052D0001A430A9B93F820321A430A9BDA600A9B0E
:1052E00093F81F324FEA03620A9B93F81E324FEA8B
:1052F00003431A430A9B93F81D324FEA03231A43D0
:105300000A9B93F81C321A430A9B1A610A9B9DF868
:1053100047201A7041F23C03C2F200031B8803F1DC
:1053200001039AB241F23C03C2F200031A8041F237
:105330003C03C2F200031A880A9BDA800A9B4FF0F2
:1053400000021A630A9B4FF000021A714FF000032B
:10535000184613B000BD00BFAFF30080AFF300806C
:1053600000B585B00190019B0393039B002B0FD0E8
:10537000039B1B68002B0BD0039B1B681B78002B27
:1053800006D0039B1B68DA88039B9B889A4202D055
:105390004FF009030FE0039B1B685B78184600F091
:1053A0008FFC034603F00103002B02D04FF00303F0
:1053B00001E04FF00003184605B000BDAFF30080D8
:1053C00084B0034600918DF807309DF80730002B1C
:1053D00002D04FF00B0321E09DF8072041F2380383
:1053E000C2F2000353F822300393039B002B03D037
:1053F000039B4FF000021A70009B002B03D0009B10
:105400004FF000021A709DF8072041F23803C2F2F3
:105410000003009943F822104FF00003184604B02F
:10542000704700BFAFF30080AFF30080AFF30080A0
:1054300000B593B00390029113468DF80730039B9B
:10544000002B02D14FF009035DE1039B4FF00002F6
:105450001A609DF8073003F01F038DF807309DF8A0
:10546000073023F00103DBB202A907AA0846114660
:105470001A46FFF75DFC03468DF847309DF847302C
:10548000002B40F03E8104AB0D93029B07AA10460F
:105490001946FFF75DFB03468DF847300C9B1093D0
:1054A0009DF84730002B06D1109B002B03D14FF005
:1054B00006038DF847309DF8073003F01C03002BDE
:1054C00000F0AB809DF84730002B13D09DF847309B
:1054D000042B06D107AB1846FFF7FAF903468DF8FF
:1054E00047309DF8073043F008038DF807300C9BD8
:1054F000109316E0109B03F10B031B7803F01103CC
:10550000002B04D04FF007038DF8473009E09DF8D9
:10551000073003F00403002B03D04FF008038DF88D
:1055200047309DF84730002B40F09A809DF80730B7
:1055300003F00803002B00F0938000F099FC0F901B
:10554000109B03F10E030F9AD2B21A70109B03F155
:105550000F030F9A92B24FEA122292B2D2B21A708D
:10556000109B03F110030F9A4FEA1242D2B21A7045
:10557000109B03F111030F9A4FEA1262D2B21A7014
:10558000109B03F10B034FF000021A70109B03F104
:105590001C034FF000021A70109B03F11D034FF023
:1055A00000021A70109B03F11E034FF000021A70E4
:1055B000109B03F11F034FF000021A70079B18465F
:1055C0001099FFF7C5F80E9010984FF00001FFF703
:1055D000EFF8079B4FF001021A710E9B002B3FD092
:1055E000079B1B6B0F93079B18460E99FEF7D8FD80
:1055F00003468DF847309DF84730002B30D1079B8C
:105600000E9A02F1FF32DA60079B18460F99FEF7F7
:10561000A7FA03468DF8473022E09DF84730002B6B
:105620001ED1109B03F10B031B7803F01003002B1A
:1056300004D04FF004038DF8473011E09DF8073097
:1056400003F00203002B0BD0109B03F10B031B781C
:1056500003F00103002B03D04FF007038DF8473010
:105660009DF84730002B12D19DF8073003F0080356
:10567000002B05D09DF8073043F020038DF807304C
:10568000079B1A6B039BDA61039B109A1A629DF8C1
:105690004730002B35D1039B9DF807209A71079B5B
:1056A00018461099FFF754F80246039B1A61109BA5
:1056B00003F11F031B784FEA0362109B03F11E03E3
:1056C0001B784FEA03431A43109B03F11D031B7819
:1056D0004FEA03231A43109B03F11C031B781A4360
:1056E000039BDA60039B4FF000029A60039B4FF02C
:1056F00000029A61079A039B1A60079BDA88039B52
:105700009A809DF84730184613B000BDAFF3008073
:1057100000B58DB00390029101920093029B089313
:10572000009B4FF000021A600398FFF719FE034632
:105730008DF81F309DF81F30002B02D09DF81F30D0
:105740005BE1039B9B79DBB25BB2002B02DA4FF08B
:10575000020352E1039B9B7903F00103002B02D16A
:105760004FF0070349E1039BDA68039B9B68D31A58
:105770000693019A069B9A4240F23981069B019357
:1057800035E1039B9B684FEAC3534FEAD353002B89
:1057900040F0F980039B9B684FEA5323DAB2039BE6
:1057A0001B689B7803F1FF33DBB213408DF8173091
:1057B0009DF81730002B2ED1039B9B68002B03D143
:1057C000039B1B690B9308E0039B1A68039B5B69AF
:1057D00010461946FEF7D4FA0B900B9B012B09D803
:1057E000039B9B7963F07F03DAB2039B9A714FF0BE
:1057F000020302E10B9BB3F1FF3F09D1039B9B79AD
:1058000063F07F03DAB2039B9A714FF00103F4E077
:10581000039B0B9A5A61039B1A68039B5B691046B2
:105820001946FEF78DFA0490049B002B09D1039BC7
:105830009B7963F07F03DAB2039B9A714FF0020306
:10584000DBE09DF81730049AD3180493019B4FEACC
:1058500053230993099B002B4AD09DF81720099BDD
:10586000D218039B1B689B789A4207D9039B1B683D
:105870009B781A469DF81730D31A0993039B1B682F
:105880005A78099BDBB210460899049A00F050FA46
:105890000346002B09D0039B9B7963F07F03DAB2A8
:1058A000039B9A714FF00103A7E0039B9B7903F0E0
:1058B0004003002B17D0039B9A69049BD21A099BC3
:1058C0009A4210D2039B9A69049BD31A4FEA43234E
:1058D000089AD218039B03F12403104619464FF48B
:1058E0000072FEF755F8099B4FEA43230A936AE0DA
:1058F000039B9A69049B9A4242D0039B9B7903F0D5
:105900004003002B22D0039B1B685978039B03F1B3
:105910002402039B9B69084611461A464FF0010377
:1059200000F036FA0346002B09D0039B9B7963F005
:105930007F03DAB2039B9A714FF001035DE0039B92
:105940009B7923F04003DAB2039B9A71039B1B6897
:105950005A78039B03F1240310461946049A4FF02A
:10596000010300F0E5F90346002B09D0039B9B7966
:1059700063F07F03DAB2039B9A714FF001033CE0BE
:10598000039B049A9A61039B9B684FEAC3534FEAB7
:10599000D353C3F500730A930A9A019B9A4201D923
:1059A000019B0A93039B9B684FEAC3534FEAD3536F
:1059B00003F12003039AD31803F10403089819464E
:1059C0000A9AFDF7E5FF089A0A9BD3180893039BF0
:1059D0009A680A9BD218039B9A60009B1A680A9BDC
:1059E000D218009B1A60019A0A9BD31A0193019B5B
:1059F000002B7FF4C6AE4FF0000318460DB000BD7B
:105A000000B587B001900198FFF7AAFC03468DF816
:105A100017309DF81730002B40F0B380019B9B7925
:105A200003F02003002B00F0AC80019B9B7903F076
:105A30004003002B1BD0019B1B685978019B03F18D
:105A40002402019B9B69084611461A464FF0010348
:105A500000F09EF90346002B02D04FF0010392E0C4
:105A6000019B9B7923F04003DAB2019B9A71019B61
:105A70001A68019BDB6910461946FEF771F8034668
:105A80008DF817309DF81730002B7AD1019B1B6AD7
:105A90000493049B03F10B03049A02F10B021278A6
:105AA00042F02002D2B21A70049B03F11C03019A47
:105AB000D268D2B21A70049B03F11D03019AD26816
:105AC00092B24FEA122292B2D2B21A70049B03F140
:105AD0001E03019AD2684FEA1242D2B21A70049B96
